:100000000C9458000C9480000C9480000C94800098
:100010000C9480000C9480000C9480000C94800060
:100020000C9480000C9480000C9480000C94800050
:100030000C9480000C9480000C9480000C94800040
:100040000C94A9030C9480000C9419040C94F303F1
:100050000C9480000C9480000C9480000C94800020
:100060000C944B040C948000000000002500280034
:100070002B00040404040404040402020202020229
:10008000030303030303010204081020408001025C
:1000900004081020010204081020000000080002DB
:1000A00001000003040700000000000000006A05D2
:1000B00011241FBECFEFD8E0DEBFCDBF11E0A0E01E
:1000C000B1E0EEEEF2E102C005900D92A832B10768
:1000D000D9F722E0A8E2B1E001C01D92AA39B20727
:1000E000E1F710E0C8E5D0E004C02197FE010E94CE
:1000F0006F09C735D107C9F70E94A3050C9475098C
:100100000C94000090E0FC01E656FF4F2491FC01A6
:10011000EA57FF4F3491FC01EE58FF4FE491EE2374
:10012000C9F0222339F0233001F1A8F4213019F16C
:10013000223029F1F0E0EE0FFF1FE859FF4FA591A3
:10014000B4918FB7F894EC91611126C030953E239D
:100150003C938FBF08952730A9F02830C9F0243090
:1001600049F7809180008F7D03C0809180008F7758
:1001700080938000DFCF84B58F7784BDDBCF84B5DB
:100180008F7DFBCF8091B0008F778093B000D2CF6E
:100190008091B0008F7DF9CF3E2BDACF3FB7F89436
:1001A0008091ED019091EE01A091EF01B091F001ED
:1001B00026B5A89B05C02F3F19F00196A11DB11DC2
:1001C0003FBFBA2FA92F982F8827BC01CD01620FFE
:1001D000711D811D911D42E0660F771F881F991FB9
:1001E0004A95D1F708958F929F92AF92BF92CF9286
:1001F000DF92EF92FF924B015C010E94CE006B01F7
:100200007C010E94CE006C197D098E099F09683E11
:10021000734081059105A8F321E0821A9108A10895
:10022000B10888EEC80E83E0D81EE11CF11C8114D1
:100230009104A104B10429F7FF90EF90DF90CF90D3
:10024000BF90AF909F908F90089508950895AF92BA
:10025000BF92CF92DF92EF92FF920F931F93CF93B3
:10026000DF936C017B018B01040F151FEB015E0115
:10027000AE18BF08C017D10759F06991D601ED91AA
:10028000FC910190F081E02DC6010995892B79F749
:10029000C501DF91CF911F910F91FF90EF90DF90FB
:1002A000CF90BF90AF900895FC01538D448D252FC2
:1002B00030E0842F90E0821B930B541710F0CF9600
:1002C000089501970895FC01918D828D981761F032
:1002D000A28DAE0FBF2FB11D5D968C91928D9F5F49
:1002E0009F73928F90E008958FEF9FEF0895FC0128
:1002F000918D828D981731F0828DE80FF11D858DDB
:1003000090E008958FEF9FEF0895FC01918D228D6D
:10031000892F90E0805C9F4F821B91098F739927F2
:10032000089581EF91E00E94850121E0892B09F475
:1003300020E0822F089580E090E0892B29F00E9430
:10034000910181110C9400000895FC01A48DA80F67
:10035000B92FB11DA35ABF4F2C91848D90E0019607
:100360008F739927848FA689B7892C93A089B18927
:100370008C91837080648C93938D848D981306C0C8
:100380000288F389E02D80818F7D80830895EF922C
:10039000FF920F931F93CF93DF93EC0181E0888F3F
:1003A0009B8D8C8D98131AC0E889F989808185FF0F
:1003B00015C09FB7F894EE89FF896083E889F989B1
:1003C00080818370806480839FBF81E090E0DF91B3
:1003D000CF911F910F91FF90EF900895F62E0B8D06
:1003E00010E00F5F1F4F0F731127E02E8C8D8E11C1
:1003F0000CC00FB607FCFACFE889F989808185FF28
:10040000F5CFCE010E94A501F1CFEB8DEC0FFD2FB2
:10041000F11DE35AFF4FF0829FB7F8940B8FEA89E2
:10042000FB8980818062CFCFCF93DF93EC01888DF1
:100430008823B9F0AA89BB89E889F9898C9185FD5F
:1004400003C0808186FD0DC00FB607FCF7CF8C91ED
:1004500085FFF2CF808185FFEDCFCE010E94A501FF
:10046000E9CFDF91CF91089520916901260F3327BD
:10047000331F21323105ECF42091B801FC0190E0EA
:1004800080E0243069F082E00895A0916901219113
:10049000AC01475B5E4FA40FB52FB11D2C930196A5
:1004A000861798F380916901680F6093690180E075
:1004B000089581E008951092B80181E08093B7011A
:1004C0001092920161E082E10E94820061E083E18A
:1004D0000E948200E9EBF0E080818E7F8083808142
:1004E0008D7F808388E48093B80085E48093BC008E
:1004F0000895CF93DF9391E0909348018823B9F05A
:10050000C091B800D091BA008091BC008A7B8093E2
:10051000BC0060E082E10E94820060E083E10E9412
:1005200082000E945B02D093BA00C093B800DF91B2
:10053000CF9108950895E091910180919001E8177D
:1005400030F4F0E0E85DFE4F808190E008958FEF99
:100550009FEF089590919101809190012FEF3FEFCF
:10056000981748F4E92FF0E0E85DFE4F208130E075
:100570009F5F90939101C90108958091900190919E
:100580009101891B990B0895CF92DF92EF92FF9210
:100590000F931F93CF93DF937C01CB018A012091AE
:1005A000BE01222389F0EB016B01C40ED51ECC15D0
:1005B000DD0569F06991D701ED91FC910190F08121
:1005C000E02DC7010995F3CF642F0E943402C801C2
:1005D000DF91CF911F910F91FF90EF90DF90CF901F
:1005E0000895CF93DF931F92CDB7DEB76983209133
:1005F000BE012223F9F02091E101203258F021E0E0
:1006000030E0FC013383228390E080E00F90DF91A3
:10061000CF9108958091BF01E82FF0E0E054FE4FA4
:10062000998190838F5F8093BF018093E10181E086
:1006300090E0ECCF61E0CE0101960E943402F7CF4A
:1006400090E080E008958F929F92AF92BF920F93B7
:100650001F93CF93DF93CDB7DEB7A1970FB6F89472
:10066000DEBF0FBECDBF19A2423008F44AE08E01B2
:100670000F5D1F4F842E912CB12CA12CA50194014C
:100680000E944D09E62FB901CA01EA3044F5E05D48
:10069000D801EE938D01232B242B252B79F790E0A5
:1006A00080E0109769F0FD0101900020E9F7319793
:1006B000AF014A1B5B0BBD0181EF91E00E94270156
:1006C000A1960FB6F894DEBF0FBECDBFDF91CF91DC
:1006D0001F910F91BF90AF909F908F900895E95C0C
:1006E000D7CF85ED8093BC008091BA019091BB017A
:1006F000A091BC01B091BD010796A11DB11D23E0E1
:10070000B695A795979587952A95D1F72091BC0026
:1007100024FD03C01092B80108954091BA01509190
:10072000BB016091BC017091BD01452B462B472B4D
:1007300069F30097A105B10541F02AE22A95F1F786
:1007400000C00197A109B109E1CF8091B9010C94D2
:1007500079021F920F920FB60F9211242F933F939D
:100760008F939F93AF93BF938091E9019091EA019A
:10077000A091EB01B091EC013091E80123E0230F4F
:100780002D3758F50196A11DB11D2093E8018093E6
:10079000E9019093EA01A093EB01B093EC01809101
:1007A000ED019091EE01A091EF01B091F001019661
:1007B000A11DB11D8093ED019093EE01A093EF0177
:1007C000B093F001BF91AF919F918F913F912F9185
:1007D0000F900FBE0F901F90189526E8230F0296DA
:1007E000A11DB11DD2CF1F920F920FB60F921124EF
:1007F0002F933F934F935F936F937F938F939F9329
:10080000AF93BF93EF93FF9381EF91E00E94A50117
:10081000FF91EF91BF91AF919F918F917F916F91D8
:100820005F914F913F912F910F900FBE0F901F90AE
:1008300018951F920F920FB60F9211242F938F933A
:100840009F93EF93FF93E0910102F0910202808168
:10085000E0910702F091080282FD1BC09081809117
:100860000A028F5F8F7320910B02821741F0E09193
:100870000A02F0E0EF50FE4F958F80930A02FF913D
:10088000EF919F918F912F910F900FBE0F901F901E
:1008900018958081F4CF1F920F920FB60F921124FA
:1008A0002F933F934F935F936F937F938F939F9378
:1008B000AF93BF93EF93FF938091B900887F803609
:1008C00009F44AC0F0F5883209F4A7C018F5803160
:1008D00009F49BC0B8F4882309F4F9C0883009F4FE
:1008E00094C0FF91EF91BF91AF919F918F917F91B4
:1008F0006F915F914F913F912F910F900FBE0F908D
:100900001F901895883109F488C0803251F7809380
:10091000B60114C0803409F49DC040F48033B9F3AB
:100920008833F9F68093B60185ECB0C0803509F4C0
:1009300085C0883509F496C0883499F60E94710301
:10094000D0CF883909F48CC038F5883729F050F4B5
:10095000883611F0803729F683E08093B801109231
:100960008B0157C0883809F47BC0803919F0803872
:1009700009F0B7CF80918B01803208F071C0E0910F
:100980008B0181E08E0F80938B018091BB00F0E0A2
:10099000E559FE4F80833DC0803B39F0E0F4803A5A
:1009A00009F479C0883A09F09CCF84E08093B801BB
:1009B00010926A0110926901E0918E01F0918F010D
:1009C00009958091690181110FC081E080936901CF
:1009D0001092490109C0803C09F4A6CF883C09F473
:1009E000A3CF883B09F07DCFE0916A0181E08E0FB3
:1009F00080936A01F0E0E75BFE4F80818093BB004B
:100A000090916A018091690129C08091930180933E
:100A1000BB0085EC8093BC0064CF9091B5018091C0
:100A2000B401981758F5E091B50181E08E0F8093DD
:100A3000B501F0E0EC56FE4F8081E9CFE091B501C1
:100A400081E08E0F8093B5018091BB00F0E0EC5601
:100A5000FE4F80839091B5018091B4019817C8F240
:100A600085E8D8CFE091B50181E08E0F8093B50184
:100A70008091BB00F0E0EC56FE4F80838091B7017F
:100A800081115CCF81E08093920184EA8093BC0065
:100A90001092B80126CF85EC8093BC001092B8016B
:100AA00080918B01803230F4E0918B01F0E0E559C8
:100AB000FE4F108260918B0170E0E0918C01F0910B
:100AC0008D018BE691E0099510928B010ACF10926F
:100AD000B60134CFE1EFF1E01382128288EE93E0A9
:100AE000A0E0B0E084839583A683B78324E031E05F
:100AF0003183208325EC30E03587248724EC30E0F7
:100B00003787268720EC30E0318B208B21EC30E0DA
:100B1000338B228B22EC30E0358B248B26EC30E0BB
:100B2000378B268B118E128E138E148EEEE8F2E028
:100B30001382128284839583A683B78386E191E032
:100B4000918380830895789484B5826084BD84B550
:100B5000816084BD85B5826085BD85B5816085BDB8
:100B600080916E00816080936E0010928100809170
:100B700081008260809381008091810081608093F8
:100B80008100809180008160809380008091B1001D
:100B900084608093B1008091B00081608093B00048
:100BA00080917A00846080937A0080917A008260DC
:100BB00080937A0080917A00816080937A0080919E
:100BC0007A00806880937A001092C100109291019F
:100BD000109290011092BF011092E1010E945B02FD
:100BE00085E291E090938F0180938E0186E291E0FF
:100BF00090938D0180938C0180E480937C0087E842
:100C000080937A00E0910102F091020282E08083F9
:100C1000E091FD01F091FE011082E091FF01F09161
:100C2000000280E1808310920902E0910502F091B8
:100C3000060286E08083E0910302F0910402808145
:100C400080618083E0910302F091040280818860DA
:100C50008083E0910302F0910402808180688083A8
:100C6000E0910302F091040280818F7D808303E292
:100C700010E095EE292E25EC822E30E0A32E30E0F8
:100C8000B32EC1E042E0942EDFEF2FB7F8948091AD
:100C9000E9019091EA01A091EB01B091EC012FBF25
:100CA0004091E4015091E5016091E6017091E70106
:100CB0006C017D01C41AD50AE60AF70AB701A6013C
:100CC000443651056105710508F40EC18093E401B5
:100CD0009093E501A093E601B093E7018AE0C82E66
:100CE000D12C80917C00887F80937C00C801019783
:100CF000F1F780917A00806480937A0080917A0085
:100D000086FDFCCFE0907800F0907900F092E3014E
:100D1000E092E2016AE070E080E090E00E94F3007F
:100D200081E0C81AD108E9F6B701FF0C880B990BCE
:100D30000E9454082AE038E240EA5BE30E94E0089F
:100D40000E941C080E9454082FE83AEA46EA54EC34
:100D50000E94E00824EA3AEA46EA55E40E94B00715
:100D60000E941C086B017C01C093BE01C093E0018E
:100D70001092BF011092E1018EE892E00E94F10210
:100D80003090E10180E2831508F48CC00E94CE000F
:100D90002B013C018091B80181115FC09092B80194
:100DA000C093B701D093B6011092B5013092B4014F
:100DB000A0ECB1E0E4E9F1E03812A8C01092930190
:100DC00080919301826080939301809192018130A0
:100DD00009F0A0C0109292010E94CE002B013C01AC
:100DE000809193018093BB008091BA019091BB01E7
:100DF000A091BC01B091BD01892B8A2B8B2B99F05E
:100E00000E94CE002091BA013091BB014091BC01FB
:100E10005091BD016419750986099709261737078E
:100E200048075907D8F18091BC0083FDD9CF809243
:100E3000BC000E94CE002B013C018091B8018230A1
:100E400009F46BC08091B6018F3F61F18091B601CA
:100E5000803241F18091B60125C08091BA01909114
:100E6000BB01A091BC01B091BD01892B8A2B8B2BBA
:100E700009F490CF0E94CE002091BA013091BB01BD
:100E80004091BC015091BD0164197509860997090B
:100E9000261737074807590708F07CCF8091B9011A
:100EA0000E9479021092BF011092E1011092BE01DE
:100EB0004AE0C701B601F7FE0DC06DE281EF91E097
:100EC0000E94C70166277727CB016C197D098E091F
:100ED0009F094AE00E94230342E050E064E271E08F
:100EE00081EF91E00E94270168EE73E080E090E0DE
:100EF0000E94F300A114B10409F4C7CE0E9491012D
:100F0000882309F4C2CE0E940000BFCE9D91919328
:100F10008F5F52CF2092BC008CCF8091BA0190910C
:100F2000BB01A091BC01B091BD01892B8A2B8B2BF9
:100F300009F483CF0E94CE002091BA013091BB0109
:100F40004091BC015091BD0164197509860997094A
:100F5000261737074807590708F06FCF9FCF50581B
:100F6000BB27AA270E94C7070C94A6080E949808CE
:100F700038F00E949F0820F039F49F3F19F426F4BE
:100F80000C9495080EF4E095E7FB0C948F08E92F7C
:100F90000E94B70858F3BA176207730784079507CA
:100FA00020F079F4A6F50C94D9080EF4E0950B2EF8
:100FB000BA2FA02D0B01B90190010C01CA01A001AB
:100FC0001124FF27591B99F0593F50F4503E68F106
:100FD0001A16F040A22F232F342F4427585FF3CF47
:100FE000469537952795A795F0405395C9F77EF418
:100FF0001F16BA0B620B730B840BBAF09150A1F061
:10100000FF0FBB1F661F771F881FC2F70EC0BA0FE6
:10101000621F731F841F48F4879577956795B7956E
:10102000F7959E3F08F0B0CF9395880F08F0992769
:10103000EE0F9795879508950E9423086894B11143
:101040000C94DA0808950E94BF0888F09F5798F022
:10105000B92F9927B751B0F0E1F0660F771F881FBD
:10106000991F1AF0BA95C9F714C0B13091F00E94D7
:10107000D908B1E008950C94D908672F782F8827F4
:10108000B85F39F0B93FCCF3869577956795B395FE
:10109000D9F73EF490958095709561957F4F8F4F6D
:1010A0009F4F0895E89409C097FB3EF49095809572
:1010B000709561957F4F8F4F9F4F9923A9F0F92F1E
:1010C00096E9BB279395F695879577956795B7959C
:1010D000F111F8CFFAF4BB0F11F460FF1BC06F5F82
:1010E0007F4F8F4F9F4F16C0882311F096E911C094
:1010F000772321F09EE8872F762F05C0662371F0B5
:1011000096E8862F70E060E02AF09A95660F771FC8
:10111000881FDAF7880F9695879597F9089597F9BC
:101120009F6780E870E060E008959FEF80EC08958D
:1011300000240A94161617061806090608950024B6
:101140000A9412161306140605060895092E039430
:10115000000C11F4882352F0BB0F40F4BF2B11F4A4
:1011600060FF04C06F5F7F4F8F4F9F4F089557FD03
:101170009058440F551F59F05F3F71F04795880F05
:1011800097FB991F61F09F3F79F08795089512169C
:1011900013061406551FF2CF4695F1DF08C0161648
:1011A00017061806991FF1CF8695710561050894F9
:1011B0000895E894BB2766277727CB0197F9089510
:1011C0000E94F3080C94A6080E94980838F00E9428
:1011D0009F0820F0952311F00C948F080C9495082B
:1011E00011240C94DA080E94B70870F3959FC1F39C
:1011F000950F50E0551F629FF001729FBB27F00DC5
:10120000B11D639FAA27F00DB11DAA1F649F662719
:10121000B00DA11D661F829F2227B00DA11D621F68
:10122000739FB00DA11D621F839FA00D611D221F22
:10123000749F3327A00D611D231F849F600D211D06
:10124000822F762F6A2F11249F5750409AF0F1F089
:1012500088234AF0EE0FFF1FBB1F661F771F881FF2
:1012600091505040A9F79E3F510580F00C948F0893
:101270000C94DA085F3FE4F3983ED4F386957795B3
:101280006795B795F795E7959F5FC1F7FE2B880F98
:10129000911D9695879597F90895A1E21A2EAA1B9C
:1012A000BB1BFD010DC0AA1FBB1FEE1FFF1FA21716
:1012B000B307E407F50720F0A21BB30BE40BF50B13
:1012C000661F771F881F991F1A9469F7609570959C
:1012D000809590959B01AC01BD01CF010895EE0F63
:0E12E000FF1F0590F491E02D0994F894FFCFC4
:1012EE0000000000C70127015401140285016301AB
:1012FE00770100000000F102C40220039A02BD0231
:08130E00AA029B020D0A000077
:00000001FF
