:020000040000FA
:100000000C9458000C9480000C9480000C94800098
:100010000C9480000C9480000C9480000C94800060
:100020000C9480000C9480000C9480000C94800050
:100030000C9480000C9480000C9480000C94800040
:100040000C9456040C9480000C94C6040C94A004E8
:100050000C9480000C9480000C9480000C94800020
:100060000C94F8040C948000000000002500280087
:100070002B00040404040404040402020202020229
:10008000030303030303010204081020408001025C
:1000900004081020010204081020000000080002DB
:1000A0000100000304070000000000000000170624
:1000B00011241FBECFEFD8E0DEBFCDBF11E0A0E01E
:1000C000B1E0E8EDF5E102C005900D92AA35B10767
:1000D000D9F722E0AAE5B1E001C01D92AE3CB2071B
:1000E000E1F710E0C8E5D0E004C02197FE010E94CE
:1000F000E40AC735D107C9F70E9450060C94EA0AF2
:100100000C94000090E0FC01E656FF4F2491FC01A6
:10011000EA57FF4F3491FC01EE58FF4FE491EE2374
:10012000C9F0222339F0233001F1A8F4213019F16C
:10013000223029F1F0E0EE0FFF1FE859FF4FA591A3
:10014000B4918FB7F894EC91611126C030953E239D
:100150003C938FBF08952730A9F02830C9F0243090
:1001600049F7809180008F7D03C0809180008F7758
:1001700080938000DFCF84B58F7784BDDBCF84B5DB
:100180008F7DFBCF8091B0008F778093B000D2CF6E
:100190008091B0008F7DF9CF3E2BDACF3FB7F89436
:1001A0008091210290912202A0912302B091240219
:1001B00026B5A89B05C02F3F19F00196A11DB11DC2
:1001C0003FBFBA2FA92F982F8827BC01CD01620FFE
:1001D000711D811D911D42E0660F771F881F991FB9
:1001E0004A95D1F7089508950895AF92BF92CF929E
:1001F000DF92EF92FF920F931F93CF93DF936C01E7
:100200007B018B01040F151FEB015E01AE18BF08C7
:10021000C017D10759F06991D601ED91FC91019079
:10022000F081E02DC6010995892B79F7C501DF9191
:10023000CF911F910F91FF90EF90DF90CF90BF90E3
:10024000AF900895FC01538D448D252F30E0842F0D
:1002500090E0821B930B541710F0CF9608950197EE
:100260000895FC01918D828D981761F0A28DAE0FDB
:10027000BF2FB11D5D968C91928D9F5F9F73928F62
:1002800090E008958FEF9FEF0895FC01918D828D8E
:10029000981731F0828DE80FF11D858D90E008955B
:1002A0008FEF9FEF0895FC01918D228D892F90E0B3
:1002B000805C9F4F821B91098F739927089585E277
:1002C00092E00E94530121E0892B09F420E0822F63
:1002D000089580E090E0892B29F00E945F01811150
:1002E0000C9400000895FC01A48DA80FB92FB11D36
:1002F000A35ABF4F2C91848D90E001968F7399275C
:10030000848FA689B7892C93A089B1898C91837039
:1003100080648C93938D848D981306C00288F38932
:10032000E02D80818F7D80830895EF92FF920F935F
:100330001F93CF93DF93EC0181E0888F9B8D8C8D91
:1003400098131AC0E889F989808185FF15C09FB785
:10035000F894EE89FF896083E889F9898081837048
:10036000806480839FBF81E090E0DF91CF911F91F7
:100370000F91FF90EF900895F62E0B8D10E00F5F18
:100380001F4F0F731127E02E8C8D8E110CC00FB6EE
:1003900007FCFACFE889F989808185FFF5CFCE0186
:1003A0000E947301F1CFEB8DEC0FFD2FF11DE35A8D
:1003B000FF4FF0829FB7F8940B8FEA89FB89808109
:1003C0008062CFCFCF93DF93EC01888D8823B9F083
:1003D000AA89BB89E889F9898C9185FD03C0808150
:1003E00086FD0DC00FB607FCF7CF8C9185FFF2CFCD
:1003F000808185FFEDCFCE010E947301E9CFDF91AF
:10040000CF91089520919B01260F3327331F21326E
:100410003105ECF42091EA01FC0190E080E0243009
:1004200069F082E00895A0919B012191AC014558AB
:100430005E4FA40FB52FB11D2C930196861798F32C
:1004400080919B01680F60939B0180E0089581E09B
:1004500008951092EA0181E08093E9011092C401AD
:1004600061E082E10E94820061E083E10E948200FB
:10047000E9EBF0E080818E7F808380818D7F8083B7
:1004800088E48093B80085E48093BC000895CF93FE
:10049000DF9391E090937A018823B9F0C091B8007E
:1004A000D091BA008091BC008A7B8093BC0060E050
:1004B00082E10E94820060E083E10E9482000E944B
:1004C0002902D093BA00C093B800DF91CF9108956C
:1004D0000895E091C3018091C201E81730F4F0E083
:1004E000E65AFE4F808190E008958FEF9FEF0895C8
:1004F0009091C3018091C2012FEF3FEF981748F40C
:10050000E92FF0E0E65AFE4F208130E09F5F9093A4
:10051000C301C90108958091C2019091C301891B53
:10052000990B0895CF92DF92EF92FF920F931F9352
:10053000CF93DF937C01CB018A012091F00122232C
:1005400089F0EB016B01C40ED51ECC15DD0569F0F9
:100550006991D701ED91FC910190F081E02DC701E7
:100560000995F3CF642F0E940202C801DF91CF9159
:100570001F910F91FF90EF90DF90CF900895CF9350
:10058000DF931F92CDB7DEB769832091F00122235C
:10059000F9F020911302203258F021E030E0FC0104
:1005A0003383228390E080E00F90DF91CF91089514
:1005B0008091F101E82FF0E0EE50FE4F9981908399
:1005C0008F5F8093F1018093130281E090E0ECCF84
:1005D00061E0CE0101960E940202F7CF90E080E038
:1005E0000895FC0101900020E9F73197AF01481B05
:1005F000590BBC0185E292E00C94F5008F929F921A
:10060000AF92BF920F931F93CF93DF93CDB7DEB717
:10061000A1970FB6F894DEBF0FBECDBF19A242302E
:1006200008F44AE08E010F5D1F4F842E912CB12CEF
:10063000A12CA50194010E94C20AE62FB901CA01AA
:10064000EA30F4F4E05DD801EE938D01232B242BE6
:10065000252B79F790E080E0109719F0CD010E94EA
:10066000F102A1960FB6F894DEBF0FBECDBFDF91A9
:10067000CF911F910F91BF90AF909F908F90089551
:10068000E95CE1CF4F925F926F927F928F929F923F
:10069000AF92BF92CF92DF92EF92FF920F931F9390
:1006A000CF936B017C01742EAC019B010E94BD0AAB
:1006B000882399F084E291E0CF911F910F91FF90F0
:1006C000EF90DF90CF90BF90AF909F908F907F90F2
:1006D0006F905F904F900C94F10246015701E8949F
:1006E000B7F82FEF3FEF4FE75FE7C501B4010E9476
:1006F000BD0A81110DC02FEF3FEF4FE75FE7C50146
:10070000B4010E94F30818161CF488E291E0D4CFDB
:100710002FEF3FEF4FE75FE4C701B6010E944B0A9E
:1007200018161CF48CE291E0C7CF2FEF3FEF4FE794
:100730005FECC701B6010E94F30887FDF3CF20E00C
:1007400030E0A901C701B6010E94F30810E000E003
:1007500087FF0AC06DE285E292E00E9495018C015C
:10076000F7FAF094F7F8F094C0E060E070E080E011
:100770009FE37C1641F020E030E040E251E40E942B
:10078000F808CF5FF6CFA70196010E9487082B01DA
:100790003C010E946A094B015C014AE00E94FE0292
:1007A0007C01E00EF11ECC23C1F1C501B4010E9411
:1007B00099099B01AC01C301B2010E9486084B015B
:1007C0005C016EE285E292E00E949501E80EF91E5E
:1007D000C15018F120E030E040E251E4C501B4011D
:1007E0000E94500A2B013C010E946A094B01B12C66
:1007F000A12C4AE0C501B4010E94FE02E80EF91ED8
:10080000C501B4010E9499099B01AC01C301B20169
:100810000E9486084B015C01DBCFC701CF911F917D
:100820000F91FF90EF90DF90CF90BF90AF909F908F
:100830008F907F906F905F904F90089585ED80939B
:10084000BC008091EC019091ED01A091EE01B0917E
:10085000EF010796A11DB11D23E0B695A7959795C9
:1008600087952A95D1F72091BC0024FD03C01092F2
:10087000EA0108954091EC015091ED016091EE0183
:100880007091EF01452B462B472B69F30097A1058B
:10089000B10541F02AE22A95F1F700C00197A109BC
:1008A000B109E1CF8091EB010C9447021F920F92A6
:1008B0000FB60F9211242F933F938F939F93AF9373
:1008C000BF9380911D0290911E02A0911F02B091D2
:1008D000200230911C0223E0230F2D3758F501969A
:1008E000A11DB11D20931C0280931D0290931E0236
:1008F000A0931F02B09320028091210290912202C6
:10090000A0912302B09124020196A11DB11D8093F4
:10091000210290932202A0932302B0932402BF915C
:10092000AF919F918F913F912F910F900FBE0F909C
:100930001F90189526E8230F0296A11DB11DD2CF56
:100940001F920F920FB60F9211242F933F934F9344
:100950005F936F937F938F939F93AF93BF93EF9327
:10096000FF9385E292E00E947301FF91EF91BF91A6
:10097000AF919F918F917F916F915F914F913F9137
:100980002F910F900FBE0F901F9018951F920F92EE
:100990000FB60F9211242F938F939F93EF93FF9392
:1009A000E0913502F09136028081E0913B02F091B6
:1009B0003C0282FD1BC0908180913E028F5F8F734D
:1009C00020913F02821741F0E0913E02F0E0EB5DA2
:1009D000FD4F958F80933E02FF91EF919F918F91F4
:1009E0002F910F900FBE0F901F9018958081F4CF1C
:1009F0001F920F920FB60F9211242F933F934F9394
:100A00005F936F937F938F939F93AF93BF93EF9376
:100A1000FF938091B900887F803609F44AC0F0F5D1
:100A2000883209F4A7C018F5803109F49BC0B8F4E6
:100A3000882309F4F9C0883009F494C0FF91EF913C
:100A4000BF91AF919F918F917F916F915F914F91E6
:100A50003F912F910F900FBE0F901F9018958831E6
:100A600009F488C0803251F78093E80114C08034C3
:100A700009F49DC040F48033B9F38833F9F68093CC
:100A8000E80185ECB0C0803509F485C0883509F4EB
:100A900096C0883499F60E941E04D0CF883909F494
:100AA0008CC038F5883729F050F4883611F080373B
:100AB00029F683E08093EA011092BD0157C088387F
:100AC00009F47BC0803919F0803809F0B7CF8091E4
:100AD000BD01803208F071C0E091BD0181E08E0F50
:100AE0008093BD018091BB00F0E0E356FE4F808310
:100AF0003DC0803B39F0E0F4803A09F479C0883A8F
:100B000009F09CCF84E08093EA0110929C0110923E
:100B10009B01E091C001F091C101099580919B0179
:100B200081110FC081E080939B0110927B0109C06D
:100B3000803C09F4A6CF883C09F4A3CF883B09F098
:100B40007DCFE0919C0181E08E0F80939C01F0E0CD
:100B5000E558FE4F80818093BB0090919C0180916D
:100B60009B0129C08091C5018093BB0085EC8093D7
:100B7000BC0064CF9091E7018091E601981758F589
:100B8000E091E70181E08E0F8093E701F0E0EA5306
:100B9000FE4F8081E9CFE091E70181E08E0F8093E5
:100BA000E7018091BB00F0E0EA53FE4F8083909113
:100BB000E7018091E6019817C8F285E8D8CFE09167
:100BC000E70181E08E0F8093E7018091BB00F0E0A8
:100BD000EA53FE4F80838091E90181115CCF81E06F
:100BE0008093C40184EA8093BC001092EA0126CF6E
:100BF00085EC8093BC001092EA018091BD018032A7
:100C000030F4E091BD01F0E0E356FE4F10826091B8
:100C1000BD0170E0E091BE01F091BF018DE991E06E
:100C200009951092BD010ACF1092E80134CFE5E298
:100C3000F2E01382128288EE93E0A0E0B0E08483B9
:100C40009583A683B78324E031E03183208325ECAC
:100C500030E03587248724EC30E03787268720EC86
:100C600030E0318B208B21EC30E0338B228B22EC77
:100C700030E0358B248B26EC30E0378B268B118EC1
:100C8000128E138E148EE2ECF2E0138212828483B1
:100C90009583A683B78386E191E09183808308954D
:100CA000CF93DF9300D000D0CDB7DEB7789484B572
:100CB000826084BD84B5816084BD85B5826085BD58
:100CC00085B5816085BD80916E00816080936E00E6
:100CD00010928100809181008260809381008091D8
:100CE0008100816080938100809180008160809389
:100CF00080008091B10084608093B1008091B00049
:100D000081608093B00080917A00846080937A0043
:100D100080917A00826080937A0080917A0081606D
:100D200080937A0080917A00806880937A00109294
:100D3000C100E0913502F091360282E08083E091BB
:100D40003102F09132021082E0913302F0913402CC
:100D500080E1808310923D02E0913902F0913A02E5
:100D600086E08083E0913702F091380280818061D3
:100D70008083E0913702F09138028081886080831F
:100D8000E0913702F0913802808180688083E091A1
:100D90003702F091380280818F7D80831092C301E9
:100DA0001092C2011092F101109213020E942902C6
:100DB00083EF90E09093C1018093C00184EF90E0B5
:100DC0009093BF018093BE0111E05E0125E0A20E69
:100DD000B11C05EE95EC392E20E0822E20E0922EFB
:100DE00022242A9480917A00806480937A008091F2
:100DF0007A0086FDFCCF8091780060917900762F93
:100E0000682F072E000C880B990B0E949B0920E08D
:100E100030EC4FE754E40E94F80820E030E040EA6C
:100E200050E40E94500A6093180270931902809354
:100E30001A0290931B022FE83AEA46EA54EC0E9409
:100E4000500A24EA3AEA46EA55E40E9487086B0110
:100E50007C0120E030E0A9010E94F30887FD54C026
:100E6000C0921402D0921502E0921602F09217027C
:100E700080E391E00E94F1026091180270911902E2
:100E800080911A0290911B0242E00E94420381E489
:100E900091E00E94F10286E491E00E94F1026091EB
:100EA000140270911502809116029091170242E08F
:100EB0000E94420382E591E00E94F10287E591E001
:100EC0000E94F1028091140290911502A0911602E5
:100ED000B091170289839A83AB83BC831093F0018E
:100EE000109312021092F10110921302CE0101969A
:100EF0007C01AE14BF0489F0F70161917F0182EC9F
:100F000092E00E94BF02F5CF1092140210921502D7
:100F10001092160210921702ABCF70901302F0E2FB
:100F2000F71508F48EC00E94CE006B017C01809101
:100F3000EA01811161C082E08093EA011093E90126
:100F40002092E8011092E7017092E601E2EFF1E0F1
:100F5000A6ECB1E080E07812B0C01092C50180919B
:100F6000C50182608093C5018091C401813009F080
:100F7000A8C01092C4010E94CE006B017C01809138
:100F8000C5018093BB008091EC019091ED01A0918F
:100F9000EE01B091EF01892B8A2B8B2B99F00E94E7
:100FA000CE004090EC015090ED016090EE01709009
:100FB000EF016C197D098E099F09461657066806D0
:100FC0007906D8F18091BC0083FDD9CF3092BC0066
:100FD0000E94CE006B017C018091EA01823009F40D
:100FE00073C08091E8018F3F61F18091E801803208
:100FF00041F18091E80125C08091EC019091ED01D3
:10100000A091EE01B091EF01892B8A2B8B2B09F473
:101010008ECF0E94CE002091EC013091ED014091E5
:10102000EE015091EF016C197D098E099F09261779
:1010300037074807590708F07ACF8091EB010E94E3
:1010400047021092F101109213021092F00120E475
:1010500020937C0087E880937A000E94CE006B0189
:101060007C0184E6482E512C612C712C0E94CE000C
:101070006C197D098E099F09683E734081059105B1
:10108000A8F391E0491A510861087108E8EECE0E04
:10109000E3E0DE1EE11CF11C411451046104710403
:1010A00029F78114910409F49DCE0E945F018823E1
:1010B00009F498CE0E94000095CE91919D938F5F88
:1010C0004ACF0093BC0084CF8091EC019091ED0158
:1010D000A091EE01B091EF01892B8A2B8B2B09F4A3
:1010E0007BCF0E94CE004090EC015090ED016090CB
:1010F000EE017090EF016C197D098E099F0946166B
:1011000057066806790608F067CF97CF5058BB2777
:10111000AA270E949E080C94110A0E94030A38F024
:101120000E940A0A20F039F49F3F19F426F40C9427
:10113000000A0EF4E095E7FB0C94FA09E92F0E94EF
:10114000220A58F3BA17620773078407950720F03D
:1011500079F4A6F50C94440A0EF4E0950B2EBA2F00
:10116000A02D0B01B90190010C01CA01A0011124AD
:10117000FF27591B99F0593F50F4503E68F11A1659
:10118000F040A22F232F342F4427585FF3CF4695EA
:1011900037952795A795F0405395C9F77EF41F160C
:1011A000BA0B620B730B840BBAF09150A1F0FF0FD6
:1011B000BB1F661F771F881FC2F70EC0BA0F621FC2
:1011C000731F841F48F4879577956795B795F795B2
:1011D0009E3F08F0B0CF9395880F08F09927EE0F47
:1011E0009795879508950E94D60908F481E008959F
:1011F0000E940C090C94110A0E940A0A58F00E94DD
:10120000030A40F029F45F3F29F00C94FA095111C8
:101210000C94450A0C94000A0E94220A68F3992350
:10122000B1F3552391F3951B550BBB27AA276217E2
:101230007307840738F09F5F5F4F220F331F441FEF
:10124000AA1FA9F335D00E2E3AF0E0E832D0915023
:101250005040E695001CCAF72BD0FE2F29D0660F10
:10126000771F881FBB1F261737074807AB07B0E853
:1012700009F0BB0B802DBF01FF2793585F4F3AF059
:101280009E3F510578F00C94FA090C94450A5F3F93
:10129000E4F3983ED4F3869577956795B795F795DF
:1012A0009F5FC9F7880F911D9695879597F90895C7
:1012B000E1E0660F771F881FBB1F62177307840763
:1012C000BA0720F0621B730B840BBA0BEE1F88F772
:1012D000E09508950E942A0A88F09F5798F0B92F48
:1012E0009927B751B0F0E1F0660F771F881F991F5B
:1012F0001AF0BA95C9F714C0B13091F00E94440AAF
:10130000B1E008950C94440A672F782F8827B85FBE
:1013100039F0B93FCCF3869577956795B395D9F7B2
:101320003EF490958095709561957F4F8F4F9F4FBC
:101330000895E89409C097FB3EF4909580957095C8
:1013400061957F4F8F4F9F4F9923A9F0F92F96E911
:10135000BB279395F695879577956795B795F11186
:10136000F8CFFAF4BB0F11F460FF1BC06F5F7F4F23
:101370008F4F9F4F16C0882311F096E911C0772335
:1013800021F09EE8872F762F05C0662371F096E83E
:10139000862F70E060E02AF09A95660F771F881F0D
:1013A000DAF7880F9695879597F90895990F0008B1
:1013B000550FAA0BE0E8FEEF16161706E807F90727
:1013C000C0F012161306E407F50798F0621B730BC2
:1013D000840B950B39F40A2661F0232B242B252B43
:1013E00021F408950A2609F4A140A6958FEF811DE6
:1013F000811D089597F99F6780E870E060E0089587
:101400009FEF80EC089500240A941616170618061C
:101410000906089500240A941216130614060506F8
:101420000895092E0394000C11F4882352F0BB0F89
:1014300040F4BF2B11F460FF04C06F5F7F4F8F4FEC
:101440009F4F089557FD9058440F551F59F05F3F27
:1014500071F04795880F97FB991F61F09F3F79F0D6
:1014600087950895121613061406551FF2CF469558
:10147000F1DF08C0161617061806991FF1CF8695DA
:101480007105610508940895E894BB2766277727BE
:10149000CB0197F908950E94D60908F48FEF0895BB
:1014A0000E94630A0C94110A0E94030A38F00E94F9
:1014B0000A0A20F0952311F00C94FA090C94000A02
:1014C00011240C94450A0E94220A70F3959FC1F3DF
:1014D000950F50E0551F629FF001729FBB27F00DE2
:1014E000B11D639FAA27F00DB11DAA1F649F662737
:1014F000B00DA11D661F829F2227B00DA11D621F86
:10150000739FB00DA11D621F839FA00D611D221F3F
:10151000749F3327A00D611D231F849F600D211D23
:10152000822F762F6A2F11249F5750409AF0F1F0A6
:1015300088234AF0EE0FFF1FBB1F661F771F881F0F
:1015400091505040A9F79E3F510580F00C94FA0944
:101550000C94450A5F3FE4F3983ED4F38695779563
:101560006795B795F795E7959F5FC1F7FE2B880FB5
:10157000911D9695879597F908950E94D609880B35
:10158000990B0895A1E21A2EAA1BBB1BFD010DC0E9
:10159000AA1FBB1FEE1FFF1FA217B307E407F50723
:1015A00020F0A21BB30BE40BF50B661F771F881FFF
:1015B000991F1A9469F760957095809590959B0195
:1015C000AC01BD01CF010895EE0FFF1F0590F4910E
:1015D000E02D0994F894FFCF000000009501F5007C
:1015E0002201E20153013101450100000000BF0268
:1015F0009202EE0268028B02780269026E616E004E
:10160000696E66006F766600416E616C6F6720568A
:101610006F6C746167653A200020562C2000547569
:10162000726269646974793A2000204E5455000D45
:021630000A00AE
:107E0000112484B714BE81FFF0D085E080938100F7
:107E100082E08093C00088E18093C10086E0809377
:107E2000C20080E18093C4008EE0C9D0259A86E02C
:107E300020E33CEF91E0309385002093840096BBD3
:107E4000B09BFECF1D9AA8958150A9F7CC24DD24C4
:107E500088248394B5E0AB2EA1E19A2EF3E0BF2EE7
:107E6000A2D0813461F49FD0082FAFD0023811F036
:107E7000013811F484E001C083E08DD089C08234E0
:107E800011F484E103C0853419F485E0A6D080C0E4
:107E9000853579F488D0E82EFF2485D0082F10E0AE
:107EA000102F00270E291F29000F111F8ED06801E7
:107EB0006FC0863521F484E090D080E0DECF843638
:107EC00009F040C070D06FD0082F6DD080E0C81688
:107ED00080E7D80618F4F601B7BEE895C0E0D1E017
:107EE00062D089930C17E1F7F0E0CF16F0E7DF06D8
:107EF00018F0F601B7BEE89568D007B600FCFDCFD4
:107F0000A601A0E0B1E02C9130E011968C91119780
:107F100090E0982F8827822B932B1296FA010C0160
:107F200087BEE89511244E5F5F4FF1E0A038BF0790
:107F300051F7F601A7BEE89507B600FCFDCF97BE46
:107F4000E89526C08437B1F42ED02DD0F82E2BD052
:107F50003CD0F601EF2C8F010F5F1F4F84911BD097
:107F6000EA94F801C1F70894C11CD11CFA94CF0C13
:107F7000D11C0EC0853739F428D08EE10CD085E9AC
:107F80000AD08FE07ACF813511F488E018D01DD067
:107F900080E101D065CF982F8091C00085FFFCCF94
:107FA0009093C60008958091C00087FFFCCF809118
:107FB000C00084FD01C0A8958091C6000895E0E648
:107FC000F0E098E1908380830895EDDF803219F02E
:107FD00088E0F5DFFFCF84E1DECF1F93182FE3DFCA
:107FE0001150E9F7F2DF1F91089580E0E8DFEE27F6
:047FF000FF270994CA
:027FFE00040479
:00000001FF
