:100000000C945E000C9486000C9486000C94860080
:100010000C9486000C9486000C9486000C94860048
:100020000C9486000C9486000C9486000C94860038
:100030000C9486000C9486000C9486000C94860028
:100040000C945F040C9486000C94CF040C94A904C7
:100050000C9486000C9486000C9486000C94860008
:100060000C9486000C948600000000080002010039
:100070000003040700000000000000000000000072
:10008000250028002B0000000000240027002A0083
:10009000040404040404040402020202020203032E
:1000A0000303030301020408102040800102040836
:1000B00010200102040810200105260711241FBE8C
:1000C000CFEFD8E0DEBFCDBF22E0A0E7B1E001C0B6
:1000D0001D92A534B207E1F711E0A0E0B1E0E8EF2E
:1000E000F2E102C005900D92A037B107D9F710E0F8
:1000F000CDE5D0E004C02197FE010E946907CC3510
:10010000D107C9F70E945D050C946F090C9400009B
:1001100090E0FC01EC55FF4F249180579F4FFC016C
:100120008491882399F090E0880F991FFC01EA5789
:10013000FF4FA591B491FC01E458FF4F8591949134
:100140008FB7F894EC91E22BEC938FBF089590E079
:10015000FC01E859FF4F2491FC01EC55FF4F34910D
:10016000FC01E057FF4FE491EE23C9F0222339F060
:10017000233001F1A8F4213019F1223029F1F0E007
:10018000EE0FFF1FE458FF4FA591B4918FB7F8947D
:10019000EC91611126C030953E233C938FBF0895AA
:1001A0002730A9F02830C9F0243049F78091800029
:1001B0008F7D03C0809180008F7780938000DFCF98
:1001C00084B58F7784BDDBCF84B58F7DFBCF8091E5
:1001D000B0008F778093B000D2CF8091B0008F7D38
:1001E000F9CF3E2BDACF3FB7F8948091760190910A
:1001F0007701A0917801B091790126B5A89B05C03F
:100200002F3F19F00196A11DB11D3FBFBA2FA92F95
:10021000982F8827BC01CD01620F711D811D911D92
:1002200042E0660F771F881F991F4A95D1F70895FE
:100230008F929F92AF92BF92CF92DF92EF92FF92F6
:100240004B015C010E94F3006B017C010E94F300F2
:100250006C197D098E099F09683E734081059105DF
:10026000A8F321E0821A9108A108B10888EEC80E0F
:1002700083E0D81EE11CF11C81149104A104B10497
:1002800029F7FF90EF90DF90CF90BF90AF909F90B5
:100290008F900895AF92BF92CF92DF92EF92FF922C
:1002A0000F931F93CF93DF936C017B018B01040F9E
:1002B000151FEB015E01AE18BF08C017D10759F03A
:1002C0006991D601ED91FC910190F081E02DC6017C
:1002D0000995892B79F7C501DF91CF911F910F9176
:1002E000FF90EF90DF90CF90BF90AF900895FC010A
:1002F000538D448D252F30E0842F90E0821B930B8B
:10030000541710F0CF96089501970895FC01918D30
:10031000828D981761F0A28DAE0FBF2FB11D5D9633
:100320008C91928D9F5F9F73928F90E008958FEFD5
:100330009FEF0895FC01918D828D981731F0828D89
:10034000E80FF11D858D90E008958FEF9FEF0895E0
:10035000FC01918D228D892F90E0805C9F4F821B44
:1003600091098F73992708958AE791E00E94A80167
:1003700021E0892B09F420E0822F089580E090E0AD
:10038000892B29F00E94B40181110C94000008957A
:10039000FC01A48DA80FB92FB11DA35ABF4F2C91FA
:1003A000848D90E001968F739927848FA689B789F1
:1003B0002C93A089B1898C91837080648C93938DE8
:1003C000848D981306C00288F389E02D80818F7D8B
:1003D00080830895EF92FF920F931F93CF93DF9343
:1003E000EC0181E0888F9B8D8C8D98131AC0E88971
:1003F000F989808185FF15C09FB7F894EE89FF8940
:100400006083E889F98980818370806480839FBFDD
:1004100081E090E0DF91CF911F910F91FF90EF90DD
:100420000895F62E0B8D10E00F5F1F4F0F731127ED
:10043000E02E8C8D8E110CC00FB607FCFACFE88928
:10044000F989808185FFF5CFCE010E94C801F1CFE7
:10045000EB8DEC0FFD2FF11DE35AFF4FF0829FB79C
:10046000F8940B8FEA89FB8980818062CFCFCF938C
:10047000DF93EC01888D8823B9F0AA89BB89E889CC
:10048000F9898C9185FD03C0808186FD0DC00FB672
:1004900007FCF7CF8C9185FFF2CF808185FFEDCFF0
:1004A000CE010E94C801E9CFDF91CF910895089550
:1004B00090E080E00895CF93DF93EC0160E08E81BF
:1004C0000E94A70061E08E810E94A70060E08E81FB
:1004D0000E94A7008BE891E00197F1F7DF91CF919F
:1004E0000895CF92DF92EF92FF920F931F93CF93D5
:1004F000DF936C017C0187E0E80EF11CD0E0C0E0E6
:10050000062F10E0B8010C2E02C0759567950A946D
:10051000E2F76170F70181917F010E94A7002196A7
:10052000C430D10579F7C601DF91CF911F910F91AA
:10053000FF90EF90DF90CF900C945B02CF92DF9210
:10054000EF92FF920F931F93CF93DF93EC01F62E60
:10055000642F8C810E94A7008D818F3F19F060E08D
:100560000E94A7000F2D10E08F8584FF25C06E012B
:1005700087E0C80ED11CF12CE12CB8010E2C02C072
:10058000759567950A94E2F76170F60181916F01A4
:100590000E94A700FFEFEF1AFF0A88E0E816F104B7
:1005A00061F7CE01DF91CF911F910F91FF90EF90F6
:1005B000DF90CF900C945B02B80184E0759567954D
:1005C0008A95E1F7CE010E9471026F2DCE01DF9175
:1005D000CF911F910F91FF90EF90DF90CF900C94EF
:1005E000710240E0682F89E292E00C949E0281E063
:1005F0000E94F1028BE39FE10197F1F70895CF93F9
:10060000DF93823029F490913802986090933802F9
:1006100080933C0210923D0280E480933E0280E190
:1006200080933F0280E58093400280912D020E94DA
:10063000880080912E028F3F11F00E9488008091E7
:100640002F020E948800C9E2D2E09E012952324066
:100650008091380284FD0AC084E090E0219628173A
:1006600039073CF48E810E948800EFCF88E090E04B
:10067000F5CF8BE39DE00197F1F760E080912D02CB
:100680000E94A70060E080912F020E94A700809145
:100690002E028F3F19F060E00E94A700809138027F
:1006A00084FD34C063E089E292E00E947102CBE4F1
:1006B000D6E4CE010197F1F763E089E292E00E946F
:1006C00071022197F1F763E089E292E00E947102E2
:1006D00083E592E00197F1F762E089E292E00E94FF
:1006E00071028091380280620E94F10284E080935E
:1006F00039028CE00E94F1020E94F70282E08093AE
:100700003A0286E0DF91CF910C94F10280620E9460
:10071000F1028BE496E40197F1F780913802806250
:100720000E94F10283E592E00197F1F7809138028F
:1007300080620E94F102D5CF90913C02691710F0BF
:100740006FEF690FE62FF0E0E75DFD4F9489890FA9
:1007500080680C94F10241E00E949E0281E090E0EA
:100760000895FC0101900020E9F73197AF01481B83
:10077000590BBC0189E292E00C944A01FC01809182
:10078000230290912402009761F0608171816115CC
:10079000710539F0448155810E94610921E0892B5E
:1007A00009F020E0822F08950F931F93CF93DF93DA
:1007B000EC0188819981009759F02A813B812617A5
:1007C000370730F081E0DF91CF911F910F910895AD
:1007D0008B016F5F7F4F0E949408009759F09983B7
:1007E00088831B830A832C813D81232B59F7FC01CD
:1007F0001082E8CF80E0E7CFCF93DF93EC018881D0
:100800009981009711F00E940B08198218821D82AD
:100810001C821B821A82DF91CF910895EF92FF9282
:100820000F931F93CF93DF93EC017B018A01BA01F1
:100830000E94D40381110BC0CE010E94FC03CE01A3
:10084000DF91CF911F910F91FF90EF9008951D833D
:100850000C83B701888199810E945A09F0CFCF9308
:10086000DF93EC01FB018617970749F060817181E6
:100870006115710541F0448155810E940E04CE013D
:10088000DF91CF9108950E94FC03F9CFFC01118202
:1008900010821382128215821482FB0101900020C3
:1008A000E9F73197AF01461B570B0C940E04FC017E
:1008B00080819181009711F00C940B0808951F928C
:1008C0000F920FB60F9211242F933F938F939F9304
:1008D000AF93BF938091720190917301A0917401C5
:1008E000B09175013091710123E0230F2D3758F538
:1008F0000196A11DB11D2093710180937201909307
:100900007301A0937401B093750180917601909169
:100910007701A0917801B09179010196A11DB11DD7
:100920008093760190937701A0937801B093790139
:10093000BF91AF919F918F913F912F910F900FBEDB
:100940000F901F90189526E8230F0296A11DB11D48
:10095000D2CF1F920F920FB60F9211242F933F9375
:100960004F935F936F937F938F939F93AF93BF93B7
:10097000EF93FF938AE791E00E94C801FF91EF9106
:10098000BF91AF919F918F917F916F915F914F91A7
:100990003F912F910F900FBE0F901F9018951F92AF
:1009A0000F920FB60F9211242F938F939F93EF9373
:1009B000FF93E0918A01F0918B018081E091900199
:1009C000F091910182FD1BC09081809193018F5F16
:1009D0008F7320919401821741F0E0919301F0E030
:1009E000E658FE4F958F80939301FF91EF919F9171
:1009F0008F912F910F900FBE0F901F9018958081AF
:100A0000F4CFEAE7F1E01382128288EE93E0A0E0EF
:100A1000B0E084839583A683B7838AE091E09183D5
:100A2000808385EC90E09587848784EC90E09787BD
:100A3000868780EC90E0918B808B81EC90E0938BAB
:100A4000828B82EC90E0958B848B86EC90E0978B88
:100A5000868B118E128E138E148EE9E2F2E01382D1
:100A600012828CE191E0918380838CE084838FEF0C
:100A700085838BE0868384E0878385E0808783E0BD
:100A8000818782E0828713861486158616861786EC
:100A900081E00E94FF0268E571E083E292E00E943B
:100AA000460464E271E08DE192E00E9446046EE249
:100AB00071E087E192E00C944604CF93DF9300D07D
:100AC00000D000D0CDB7DEB7789484B5826084BD05
:100AD00084B5816084BD85B5826085BD85B5816042
:100AE00085BD80916E00816080936E0010928100C0
:100AF000809181008260809381008091810081607B
:100B0000809381008091800081608093800080913B
:100B1000B10084608093B1008091B00081608093C7
:100B2000B00080917A00846080937A0080917A008E
:100B3000826080937A0080917A00816080937A004D
:100B400080917A00806880937A001092C100E091D1
:100B50008A01F0918B0182E08083E0918601F0911F
:100B600087011082E0918801F091890180E1808302
:100B700010929201E0918E01F0918F0186E08083C6
:100B8000E0918C01F0918D01808180618083E09102
:100B90008C01F0918D01808188608083E0918C01CF
:100BA000F0918D01808180688083E0918C01F091CB
:100BB0008D0180818F7D808382E00E94FF0260E052
:100BC00082E00E949C0388E391E00E94B10361E00F
:100BD00082E00E949C0385E491E00E94B10364E6F8
:100BE00070E080E090E00E9418010E94F70260E04F
:100BF00082E00E949C038CE491E00E94B10364E6D1
:100C000070E080E090E00E9418010E94F70289E500
:100C100091E00E94B10362E370E080E090E00E9406
:100C200018010E94F70280E0E82E80E0F82E60E0D4
:100C300081E00E949C0340911B0250911C02609134
:100C400017027091180289E292E00E944A0161E065
:100C500081E00E949C034091210250912202609108
:100C60001D0270911E0289E292E00E944A018AE709
:100C700091E00E94A8011816190654F48AE791E041
:100C80000E9486018A3009F06FC081E08093700174
:100C900080917001882309F455C065E671E0CE01AA
:100CA00001960E94460420912702309128028D81EE
:100CB0009E8110E02817390728F0CE0101960E9486
:100CC000BE03182FCE0101960E945704112309F488
:100CD00074C01A8219821C821B821E821D8263E2EA
:100CE00072E0CE0101960E942F040D811E810E5FDD
:100CF0001F4FB801CE0101960E94D403882309F446
:100D000057C029813A818D819E816BE271E0820F0B
:100D1000931F0E945A091E830D83BE016F5F7F4F90
:100D20008DE192E00E942F04CE0101960E945704AB
:100D300050E040E068E571E083E292E00E940E043A
:100D40001092700164E670E080E090E00E9418016B
:100D5000E114F10409F46BCF0E94B401882309F473
:100D600066CF0E94000063CF89831A820091270218
:100D7000109128020F5F1F4FB80183E292E00E949A
:100D8000D403882309F473CF2091230230912402E5
:100D90008091270290912802BE016F5F7F4F820FE2
:100DA000931F0E945A0910932802009327025FCFD5
:100DB000CE0101960E94FC03B0CF6BE671E0CE013C
:100DC00001960E94460420912702309128028D81CD
:100DD0009E812817390728F0CE0101960E94BE0394
:100DE000182FCE0101960E945704112309F4A0CFB9
:100DF0001A8219821C821B821E821D8263E272E0AB
:100E0000CE0101960E942F040D811E810C5F1F4FA1
:100E1000B801CE0101960E94D40381110AC0CE010F
:100E200001960E94FC03BE016F5F7F4F87E192E055
:100E300079CF29813A818D819E8163E371E0820FB0
:100E4000931F0E945A091E830D83EDCF87E192E024
:100E50000E9457048DE192E00E94570483E292E0E1
:100E60000C9457042F923F924F925F926F927F9211
:100E70008F929F92AF92BF92CF92DF92EF92FF92AA
:100E80000F931F93CF93DF93CDB7DEB7CA1BDB0B56
:100E90000FB6F894DEBF0FBECDBF09942A883988FB
:100EA00048885F846E847D848C849B84AA84B98402
:100EB000C884DF80EE80FD800C811B81AA81B9810E
:100EC000CE0FD11D0FB6F894DEBF0FBECDBFED0122
:100ED0000895EE0FFF1F0590F491E02D09940F93F4
:100EE0001F93CF93DF938230910510F482E090E05E
:100EF000E0914302F091440230E020E0B0E0A0E055
:100F0000309799F42115310509F44AC0281B390B93
:100F100024303105D8F58A819B816115710589F1ED
:100F2000FB0193838283FE0111C0408151810281C4
:100F3000138148175907E0F04817590799F410979B
:100F400061F012960C93129713961C933296CF0170
:100F5000DF91CF911F910F91089500934302109359
:100F60004402F4CF2115310551F04217530738F0F0
:100F7000A901DB019A01BD01DF01F801C1CFEF0139
:100F8000F9CF9093440280934302CDCFFE01E20F4C
:100F9000F31F819391932250310939832883D7CF4E
:100FA0002091410230914202232B41F42091020111
:100FB00030910301309342022093410220910001BD
:100FC000309101012115310541F42DB73EB7409113
:100FD000040150910501241B350BE0914102F09171
:100FE0004202E217F307A0F42E1B3F0B2817390724
:100FF00078F0AC014E5F5F4F2417350748F04E0F75
:101000005F1F5093420240934102819391939FCF7F
:10101000F0E0E0E09CCFCF93DF930097E9F0FC0194
:10102000329713821282A0914302B0914402ED01E3
:1010300030E020E01097A1F420813181820F931FCE
:1010400020914102309142022817390709F061C00E
:10105000F0934202E0934102DF91CF910895EA01BB
:10106000CE17DF07E8F54A815B819E0141155105E6
:10107000B1F7E901FB83EA8349915991C40FD51F68
:10108000EC17FD0761F4808191810296840F951F12
:10109000E90199838883828193819B838A83F0E02D
:1010A000E0E012968D919C9113970097B9F52D91E0
:1010B0003C911197CD010296820F931F209141021E
:1010C000309142022817390739F6309751F51092BE
:1010D000440210924302B0934202A0934102BCCF5B
:1010E000D383C28340815181840F951FC817D907CC
:1010F00061F44E5F5F4F88819981480F591F51837A
:1011000040838A819B81938382832115310509F075
:10111000B0CFF0934402E09343029ECFFD01DC0187
:10112000C0CF13821282D7CFB0E0A0E0EAE9F8E0A6
:101130000C9434078C01009751F4CB010E946F0787
:101140008C01C801CDB7DEB7E0E10C945007FC017B
:10115000E60FF71F9C0122503109E217F30708F44C
:101160009DC0D901CD91DC911197C617D70798F092
:10117000C530D10530F3CE0104978617970708F3E1
:10118000C61BD70B2297C193D1936D937C93CF014C
:101190000E940B08D6CF5B01AC1ABD0A4C018C0E25
:1011A0009D1EA0914302B0914402512C412CF12C80
:1011B000E12C109731F580914102909142028815FF
:1011C000990509F05CC04616570608F058C0809192
:1011D000000190910101009741F48DB79EB74091B5
:1011E000040150910501841B950BE817F90708F0DD
:1011F00055C0F0934202E0934102F901718360838C
:10120000A0CF8D919C91119712966C901297139686
:101210007C901397A815B90559F56C0142E0C40EEE
:10122000D11CCA14DB0420F1AC014A195B09DA01B4
:101230001296159780F06282738251834083D901A0
:101240006D937C93E114F10471F0D7011396FC9334
:10125000EE93129776CF22968C0F9D1FF901918302
:101260008083F301EFCFF0934402E093430269CF10
:101270004816590608F42C017D01D3019ACFCB0101
:101280000E946F077C01009749F0AE01B8010E94EF
:101290005109C8010E940B08870153CF10E000E0FC
:1012A00050CFFB01DC0102C001900D924150504033
:1012B000D8F70895FB01DC0101900D920020E1F7C1
:1012C0000895FB01DC014150504030F08D910190B8
:1012D000801919F40020B9F7881B990B089510E0C4
:1012E000CDE5D0E004C0FE010E9469072196CE350D
:0812F000D107C9F7F894FFCF04
:1012F80000004502800000000000EA014A01770171
:101308003702A80186019A0100000000AB034A01D8
:101318005802570254656D703A20302A63005442CF
:101328003A2030204E545500494E495449414C49C1
:1013380053494E470053595354454D00494E49545B
:1013480049414C49534544210057414954494E4766
:101358002E2E2E2E0054656D703A0054423A00002D
:00000001FF
