:020000040000FA
:100000000C94FE000C9426010C9426010C949F077E
:100010000C949F070C949F070C9426010C942601C6
:100020000C9426010C9426010C9426010C942601B4
:100030000C9426010C9426010C9426010C942601A4
:100040000C94DE050C9426010C944E060C942806A4
:100050000C9426010C9426010C9426010C94260184
:100060000C9480060C9426014E414E494E49545939
:10007000494E46CDCCCC3D0AD7233C17B7D1387773
:10008000CC2B329595E6241FB14F0A000020410089
:1000900000C84200401C4620BCBE4CCA1B0E5AAED3
:1000A000C59D7400407A10F35A00A0724E180900E2
:1000B00010A5D4E80000E87648170000E40B5402CD
:1000C0000000CA9A3B000000E1F505000080969808
:1000D00000000040420F000000A086010000001058
:1000E0002700000000E8030000000064000000009A
:1000F000000A00000000000100000000002C76D87B
:1001000088DC674F0823DFC1DFAE59E1B1B796E560
:10011000E3E453C63AE651997696E8E6C28426EBC4
:10012000898C9B62ED407C6FFCEFBC9C9F40F2BAD7
:10013000A56FA5F490055A2AF75C936B6CF9676D6F
:10014000C11BFCE0E40D47FEF520E6B500D0ED90C4
:100150002E0300943577050080841E080000204E91
:100160000A000000C80C333333330F986E1283112A
:1001700041EF8D2114893BE65516CFFEE6DB18D101
:10018000844B381BF77C1D901DA4BBE424203284D3
:10019000725E228100C9F124ECA1E53D2700000038
:1001A0000800020100000304070000000000000036
:1001B00000000000002300260029000000000024A9
:1001C0000027002A0000000000250028002B000462
:1001D00004040404040404020202020202030303EE
:1001E00003030301020408102040800102040810E8
:1001F00020010204081020001708190C11241FBE4A
:10020000CFEFD8E0DEBFCDBF23E0AEE5B1E001C067
:100210001D92A433B207E1F711E0A0E0B1E0ECE2F7
:10022000F7E202C005900D92AE35B107D9F710E0A4
:10023000CDEFD0E004C02197FE010E949111CC3F88
:10024000D107C9F70E9428090C9489130C94000067
:1002500090E0FC01E356FE4F2491FC01ED51FE4F6E
:100260003491FC01E153FE4FE491EE23C9F02223C7
:1002700039F0233001F1A8F4213019F1223029F1AD
:10028000F0E0EE0FFF1FEB53FE4FA591B4918FB737
:10029000F894EC91611126C030953E233C938FBFBA
:1002A00008952730A9F02830C9F0243049F780910B
:1002B00080008F7D03C0809180008F7780938000C5
:1002C000DFCF84B58F7784BDDBCF84B58F7DFBCF47
:1002D0008091B0008F778093B000D2CF8091B00032
:1002E0008F7DF9CF3E2BDACF2FB7F8946091510272
:1002F0007091520280915302909154022FBF089541
:1003000081E0809359020E947401609355027093BA
:10031000560280935702909358025C9A299A089546
:100320000895CF93DF93AC01E0913A02F0913B0244
:100330003097F1F090913902809138029817C0F00F
:1003400090E0292F30E02617370754F4D901A25640
:10035000BE4F240F351FE90128812C939F5FF1CFF9
:100360001092390260933802CB01DF91CF9109944A
:10037000DF91CF9108950895AF92BF92CF92DF920F
:10038000EF92FF920F931F93CF93DF936C017B014A
:100390008B01040F151FEB015E01AE18BF08C017DB
:1003A000D10759F06991D601ED91FC910190F0814E
:1003B000E02DC6010995892B79F7C501DF91CF9111
:1003C0001F910F91FF90EF90DF90CF90BF90AF9073
:1003D0000895CF93DF93FC01448155816081718141
:1003E0008AE592E00E94BC01EC0142E050E06CE33F
:1003F00071E08AE592E00E94BC018C0F9D1FDF91A5
:10040000CF910895FC01538D448D252F30E0842F2A
:1004100090E0821B930B541710F0CF96089501972C
:100420000895FC01918D828D981761F0A28DAE0F19
:10043000BF2FB11D5D968C91928D9F5F9F73928FA0
:1004400090E008958FEF9FEF0895FC01918D828DCC
:10045000981731F0828DE80FF11D858D90E0089599
:100460008FEF9FEF0895FC01918D228D892F90E0F1
:10047000805C9F4F821B91098F73992708958AE5AD
:1004800092E00E94330221E0892B09F420E0822FC0
:10049000089580E090E0892B29F00E943F028111AD
:1004A0000C9400000895FC01A48DA80FB92FB11D74
:1004B000A35ABF4F2C91848D90E001968F7399279A
:1004C000848FA689B7892C93A089B1898C91837078
:1004D00080648C93938D848D981306C00288F38971
:1004E000E02D80818F7D80830895EF92FF920F939E
:1004F0001F93CF93DF93EC0181E0888F9B8D8C8DD0
:1005000098131AC0E889F989808185FF15C09FB7C3
:10051000F894EE89FF896083E889F9898081837086
:10052000806480839FBF81E090E0DF91CF911F9135
:100530000F91FF90EF900895F62E0B8D10E00F5F56
:100540001F4F0F731127E02E8C8D8E110CC00FB62C
:1005500007FCFACFE889F989808185FFF5CFCE01C4
:100560000E945302F1CFEB8DEC0FFD2FF11DE35AEA
:10057000FF4FF0829FB7F8940B8FEA89FB89808147
:100580008062CFCFCF93DF93EC01888D8823B9F0C1
:10059000AA89BB89E889F9898C9185FD03C080818E
:1005A00086FD0DC00FB607FCF7CF8C9185FFF2CF0B
:1005B000808185FFEDCFCE010E945302E9CFDF910C
:1005C000CF9108952091E401260F3327331F213264
:1005D0003105ECF420910802FC0190E080E0243029
:1005E00069F082E00895A091E4012191AC014C539F
:1005F0005E4FA40FB52FB11D2C930196861798F36B
:100600008091E401680F6093E40180E0089581E047
:1006100008951092080281E080930A021092090264
:1006200061E082E10E94280161E083E10E942801EB
:10063000E9EBF0E080818E7F808380818D7F8083F5
:1006400088E48093B80085E48093BC000895089501
:10065000E091390280913802E81730F4F0E0E25678
:10066000FE4F808190E008958FEF9FEF0895909165
:100670003902809138022FEF3FEF981748F4E92FA5
:10068000F0E0E256FE4F208130E09F5F9093390208
:10069000C90108958091380290913902891B990B04
:1006A0000895CF93DF93CB01EA01642F0E94E20209
:1006B000CE01DF91CF910895CF93DF931F92CDB7F5
:1006C000DEB7698361E0CE0101960E94E20281E01B
:1006D00090E00F90DF91CF910895209130023091FA
:1006E00031022817390771F490912E0280912F0260
:1006F000981741F0E0912E02F0E0E25AFE4F80811F
:1007000090E008958FEF9FEF0895EF92FF920F937F
:100710001F93CF93DF93DC015C96ED90FC905D9787
:10072000E114F10479F481E090E013969C938E93A8
:10073000129790E080E0DF91CF911F910F91FF9091
:10074000EF9008955196ED91FC91529750968C91AF
:100750005097982F90950FB75E962C915E97122F19
:10076000127021FD6095F8942081112319F1282B36
:100770002083E7012197F1F728E0462F50E03081F0
:1007800060FF1AC0382B3083E7012197F1F7BA01D7
:1007900075956795215089F7112381F08081892310
:1007A00080830FBF5C968D919C910197F1F781E05A
:1007B00090E0C1CF2923DCCF3923E5CF9081892B6D
:1007C000EFCF20913002309131022817390761F4C0
:1007D00080912F0220912E0290E0805C9F4F821B1F
:1007E00091098F739927089590E080E008952091F2
:1007F00030023091310228173907B9F490912E0256
:1008000080912F02981789F0E0912E02F0E0E25AD1
:10081000FE4F808120912E0230E02F5F3F4F2F73DB
:10082000332720932E0290E008958FEF9FEF0895D5
:1008300090E080E008950F931F93CF93DF93EC0136
:1008400088819981009759F02A813B8126173707C3
:1008500030F081E0DF91CF911F910F9108958B01CE
:100860006F5F7F4F0E94BC12009759F09983888375
:100870001B830A832C813D81232B59F7FC011082B5
:10088000E8CF80E0E7CFEF92FF920F931F93CF93D3
:10089000DF936115710541F480E0DF91CF911F91E5
:1008A0000F91FF90EF90089541155105B1F07B0134
:1008B000EC010C811D81040F151FB8010E941B045F
:1008C000882351F3288139818C819D81B701820F62
:1008D000931F0E9482131D830C8381E0DECFCF9390
:1008E000DF93EC0188819981009711F00E94331207
:1008F000198218821D821C821B821A82DF91CF917D
:100900000895EF92FF920F931F93CF93DF93EC0123
:100910007B018A01BA010E941B0481110BC0CE0128
:100920000E946F04CE01DF91CF911F910F91FF9034
:10093000EF9008951D830C83B701888199810E94EF
:100940008213F0CFFB0101900020E9F73197AF014E
:10095000461B570B0C948104EF92FF920F931F9349
:10096000CF93DF93CDB7DEB7A1970FB6F894DEBF74
:100970000FBECDBF7C01CB01BA01F70111821082FD
:1009800013821282158214828E010F5F1F4F22E0A4
:1009900044E00E943C0C009789F0BC01C7010E9412
:1009A000A204A1960FB6F894DEBF0FBECDBFDF91B3
:1009B000CF911F910F91FF90EF900895C7010E9472
:1009C0006F04EFCFCF93DF93EC01FB0186179707FE
:1009D00049F0608171816115710541F04481558153
:1009E0000E948104CE01DF91CF9108950E946F048F
:1009F000F9CFFC01118210821382128215821482B7
:100A0000FB0101900020E9F73197AF01461B570B1E
:100A10000C948104FC0180819181009711F00C9469
:100A2000331208950F931F93CF93DF93CDB7DEB7A3
:100A30002A970FB6F894DEBF0FBECDBF10E000E0DE
:100A40009091380280913902981759F087EF92E01F
:100A50000E943703E7E0F0E0EC0FFD1FE00FF11F0D
:100A600080830F5F1F4F0430110551F74F81588568
:100A700069857A85CE0101960E94AC048091280395
:100A800090912903009761F169817A81611571055F
:100A900029F140912A0350912B032D813E81421769
:100AA0005307E0F00E9482138D819E8190932D0365
:100AB00080932C031E821D82CE0101960E940A059E
:100AC00081E080934B022A960FB6F894DEBF0FBEEA
:100AD000CDBFDF91CF911F910F9108950E943312E6
:100AE00089819A8190932903809328038B819C812B
:100AF00090932B0380932A038D819E8190932D03E5
:100B000080932C031A8219821C821B82D3CFCF932D
:100B1000DF9385ED8093BC008091C0019091C1016D
:100B2000A091C201B091C3010796A11DB11D23E0A0
:100B3000B695A795979587952A95D1F72091BC00F2
:100B400024FD03C01092080236C04091C0015091AC
:100B5000C1016091C2017091C301452B462B472B07
:100B600069F30097A105B10541F02AE22A95F1F752
:100B700000C00197A109B109E1CF8091BF0191E0C7
:100B80009093BE018823B9F0C091B800D091BA000B
:100B90008091BC008A7B8093BC0060E082E10E946F
:100BA000280160E083E10E9428010E940903D0939C
:100BB000BA00C093B800DF91CF9108951F920F92B1
:100BC0000FB60F9211242F933F938F939F93AF9360
:100BD000BF938091510290915202A0915302B09123
:100BE00054023091500223E0230F2D3758F501961F
:100BF000A11DB11D20935002809351029093520287
:100C0000A0935302B093540280914C0290914D02F4
:100C1000A0914E02B0914F020196A11DB11D80938B
:100C20004C0290934D02A0934E02B0934F02BF919D
:100C3000AF919F918F913F912F910F900FBE0F9089
:100C40001F90189526E8230F0296A11DB11DD2CF43
:100C50001F920F920FB60F9211242F933F934F9331
:100C60005F936F937F938F939F93AF93BF93EF9314
:100C7000FF938AE592E00E945302FF91EF91BF91AA
:100C8000AF919F918F917F916F915F914F913F9124
:100C90002F910F900FBE0F901F9018951F920F92DB
:100CA0000FB60F9211242F938F939F93EF93FF937F
:100CB000E0916A02F0916B028081E0917002F09104
:100CC000710282FD1BC09081809173028F5F8F73D0
:100CD00020917402821741F0E0917302F0E0E65A2D
:100CE000FD4F958F80937302FF91EF919F918F91AC
:100CF0002F910F900FBE0F901F9018958081F4CF09
:100D00001F920F920FB60F9211242F933F934F9380
:100D10005F936F937F938F939F93AF93BF93EF9363
:100D2000FF938091B900887F803609F44AC0F0F5BE
:100D3000883209F4A7C018F5803109F49BC0B8F4D3
:100D4000882309F4F9C0883009F494C0FF91EF9129
:100D5000BF91AF919F918F917F916F915F914F91D3
:100D60003F912F910F900FBE0F901F9018958831D3
:100D700009F488C0803251F78093070214C0803490
:100D800009F49DC040F48033B9F38833F9F68093B9
:100D9000070285ECB0C0803509F485C0883509F4B8
:100DA00096C0883499F60E948705D0CF883909F417
:100DB0008CC038F5883729F050F4883611F0803728
:100DC00029F683E0809308021092060257C0883803
:100DD00009F47BC0803919F0803809F0B7CF8091D1
:100DE0000602803208F071C0E091060281E08E0FA9
:100DF000809306028091BB00F0E0EA51FE4F8083B1
:100E00003DC0803B39F0E0F4803A09F479C0883A7B
:100E100009F09CCF84E0809308021092E5011092C3
:100E2000E401E0913402F091350209958091E401EA
:100E300081110FC081E08093E4011092C40109C0C8
:100E4000803C09F4A6CF883C09F4A3CF883B09F085
:100E50007DCFE091E50181E08E0F8093E501F0E028
:100E6000EC53FE4F80818093BB009091E50180910F
:100E7000E40129C080912D028093BB0085EC809312
:100E8000BC0064CF90912C0280912B02981758F5EA
:100E9000E0912C0281E08E0F80932C02F0E0E55F60
:100EA000FD4F8081E9CFE0912C0281E08E0F80938D
:100EB0002C028091BB00F0E0E55FFD4F80839091B4
:100EC0002C0280912B029817C8F285E8D8CFE091C8
:100ED0002C0281E08E0F80932C028091BB00F0E009
:100EE000E55FFD4F808380910A0281115CCF81E034
:100EF0008093090284EA8093BC001092080226CFF6
:100F000085EC8093BC00109208028091060280322A
:100F100030F4E0910602F0E0EA51FE4F1082609159
:100F2000060270E0E0913202F091330286EE91E029
:100F30000995109206020ACF1092070234CF1F9231
:100F40000F920FB60F9211242F933F934F935F93FD
:100F50006F937F938F939F93AF93BF93EF93FF9381
:100F6000E0913002F0913102309749F0A685B785C3
:100F70008585968D91FF14C09C918923A1F4FF91E2
:100F8000EF91BF91AF919F918F917F916F915F9101
:100F90004F913F912F910F900FBE0F901F9018957A
:100FA0009C91892361F7A389B4899C918589809557
:100FB00089238C93868997890197F1F7608D718DCC
:100FC000A685B785558538E020E0CB010197F1F77C
:100FD000822F90E095958795282F4C91452309F015
:100FE0002068315091F7868D81FD209580912F02E8
:100FF00090E001968F73992730912E02381799F05F
:10100000A0912F02B0E0A25ABE4F2C9380932F02E2
:10101000828D938D0197F1F7A389B4898C9195897D
:10102000892B8C93ACCF868D8160868FF1CFCF9248
:10103000DF92EF92FF920F931F93CF93DF93109263
:101040005D0210925C02E8EECE2EE3E0DE2EE12C93
:10105000F12CC0925E02D0925F02E0926002F092A8
:1010600061028AE091E090935B0280935A0285ECE2
:1010700090E0909367028093660284EC90E09093F6
:1010800069028093680280EC90E090936B028093F9
:101090006A0281EC90E090936D0280936C0282EC86
:1010A00090E090936F0280936E0286EC90E09093B4
:1010B0007102809370021092730210927402109267
:1010C0007502109276021092FA021092F902C09202
:1010D000FB02D092FC02E092FD02F092FE028CE153
:1010E00091E09093F8028093F7026EE371E088E25A
:1010F00093E00E94F9046EE371E082E293E00E94C3
:10110000F9041092060310920503C0920703D092CF
:101110000803E0920903F0920A038EE291E09093B3
:1011200004038093030310921A0310921903109280
:101130001C0310921B0310921E0310921D031092A9
:10114000200310921F03609121036E7F6D7F6093D7
:1011500021036695617081E068278BE00E94280179
:101160004EEE51E0FA0164918AED91E0FC01249188
:10117000222399F030E0220F331FF901E554FE4F8E
:10118000A591B491F901EB53FE4F259134912FB7FE
:10119000F8943C91632B6C932FBFFA0144914093D8
:1011A0001303FC018491E82FF0E0EE0FFF1FEB53D7
:1011B000FE4F8591949190931503809314030DEE47
:1011C00011E0F8012491C9EDD1E0FE01849188235A
:1011D000C9F090E0880F991FFC01E554FE4FA591DE
:1011E000B491FC01EB53FE4F459154913FB7F894F5
:1011F0009C91822F809598239C93FA01908189235A
:1012000080833FBF8091210381FD04C061E08AE0BB
:101210000E9428018AE080930F03F8010491009353
:101220001003FE01C491EC2FF0E0EE0FFF1FEF540E
:10123000FE4F859194919093120380931103DF9157
:10124000CF911F910F91FF90EF90DF90CF90089575
:10125000CF93DF93CDB7DEB762970FB6F894DEBFBA
:101260000FBECDBF789484B5826084BD84B58160A3
:1012700084BD85B5826085BD85B5816085BD809161
:101280006E00816080936E001092810080918100D9
:1012900082608093810080918100816080938100D1
:1012A000809180008160809380008091B100846093
:1012B0008093B1008091B00081608093B0008091F4
:1012C0007A00846080937A0080917A0082608093B3
:1012D0007A0080917A00816080937A0080917A0010
:1012E000806880937A001092C100E0916A02F091C8
:1012F0006B0282E08083E0916602F09167021082C7
:10130000E0916802F091690280E18083109272029C
:10131000E0916E02F0916F0286E08083E0916C02B2
:10132000F0916D02808180618083E0916C02F09188
:101330006D02808188608083E0916C02F0916D0283
:10134000808180688083E0916C02F0916D028081E1
:101350008F7D808310921E0310921D0310921C0338
:1013600010921B0310921A03109219038FE190E060
:101370009093200380931F0390910F03963108F000
:1013800047C021E030E030931A03209319032DE188
:1013900030E030931C0320931B032DE030E03093AA
:1013A0001E0320931D032091680084E0983048F0CC
:1013B00031E09E3008F430E081E001C0880F3A95BA
:1013C000EAF7822B809368002DE630E0983050F0E9
:1013D0002BE630E09E3030F02CE630E0963110F015
:1013E00030E020E03093170320931603292F30E0DC
:1013F000983008F0ECC181E001C0880F9A95EAF7B7
:101400008093180380911F03909120030197F1F7B7
:1014100080911D0390911E03892B49F1E0913002C8
:10142000F091310223E0E330F20709F1309739F00F
:10143000A389B4899C918589809589238C93809117
:1014400021038E7F8093210310922F0210922E028F
:1014500083E093E09093310280933002E091160391
:10146000F0911703808190911803892B8083219A32
:10147000209A579A549A0E94740160934002709384
:10148000410280934202909343020E947401609350
:101490004402709345028093460290934702109253
:1014A00039021092380210923702109236020E94CE
:1014B000090380E991E0909335028093340281E939
:1014C00091E0909333028093320282E08093BA00DD
:1014D00082E195E090933B0280933A0200E010E0B5
:1014E000BB24B3940E9474018AE592E00E94330207
:1014F000181619064CF48AE592E00E9411028A300F
:1015000009F072C1B092490280914B02882309F41C
:101510006AC0289A8091280390912903C12CD12C6C
:101520007601009721F00E945A0C6B017C01B701F3
:10153000A601CE0101960E94AC046FE371E0CE01DA
:1015400007960E94F9044D815E8169817A81CE01FE
:1015500007960E944304811104C0CE0107960E94A1
:101560006F041E861D86188A1F861A8A198ABE0174
:10157000695F7F4FCE010D960E94E204CE0107966F
:101580000E940A05CE0101960E940A05CE010D9621
:101590000E94E90120E030E048E452E4C701B601CE
:1015A0000E948C1118168CF463E471E0CE01019650
:1015B0000E94F9040E948001CE0101960E940A0552
:1015C00061E090E080E00E942D116EE371E088E21E
:1015D00093E00E94A20410924B02CE010D960E944D
:1015E0000A05B0924A0280914902882309F480C01A
:1015F0005F9A8091220390912303C12CD12C760114
:10160000009721F00E945A0C6B017C01B701A601E2
:10161000CE0101960E94AC046CE471E0CE01079605
:101620000E94F9044D815E8169817A81CE0107961D
:101630000E944304811104C0CE0107960E946F04EA
:101640001E861D86188A1F861A8A198ABE01695F3E
:101650007F4FCE010D960E94E204CE0107960E94B4
:101660000A05CE0101960E940A05A7019601609124
:101670003C0270913D0280913E0290913F020E9497
:101680000610882361F0C0923C02D0923D02E092A5
:101690003E02F0923F02CE010D960E94E90120E049
:1016A00030E040EF51E4C701B6010E948C111816DA
:1016B0008CF462E571E0CE0101960E94F9040E946B
:1016C0008001CE0101960E940A0561E081E090E070
:1016D0000E942D116EE371E082E293E00E94A20469
:1016E00010924902CE010D960E940A05B09248025E
:1016F0000E947401C0904402D0904502E0904602DE
:10170000F09047026C197D098E099F09693E73406C
:101710008105910588F080914802882369F05F98DF
:10172000109248020E947401609344027093450233
:1017300080934602909347020E947401C090400239
:10174000D0904102E0904202F09043026C197D0972
:101750008E099F09693E73408105910588F080914B
:101760004A02882369F028980E947401609340021D
:1017700070934102809342029093430210924A0276
:10178000809159028823B9F00E947401C0905502DB
:10179000D0905602E0905702F09058026C197D09E3
:1017A0008E099F09603971408105910520F05C9890
:1017B0002998109259020115110509F493CE0E943F
:1017C0003F02882309F48ECE0E9400008BCE9E300B
:1017D00040F42850310981E001C0880F2A95EAF7CA
:1017E0000FCE2E503109F7CF89831A82E09026035D
:1017F000F09027038FEFE81AF80AB70182E293E02E
:101800000E941B04882309F46FCE2091220330919B
:1018100023038091260390912703BE016F5F7F4FC2
:10182000820F931F0E948213F0922703E0922603F7
:101830005BCE8EE291E0909304038093030380914A
:101840003002909131028350934071F4E09116037D
:10185000F0911703908180911803809589238083EC
:10186000109231021092300282E293E00E940A0547
:1018700088E293E00C940A05EF920F931F93CF93A5
:10188000DF93E80134E047FD34E1042E000C550BF2
:1018900057FF03C0519541955109E32E022F242F84
:1018A000AE010E945E0CCE01DF91CF911F910F918E
:1018B000EF900895662777270C94BD0DA9E0B0E05E
:1018C000E4E6FCE00C944C116A01F22EB02E102FCD
:1018D000FBE3AF2EA01608F41BE31F5F012F27E0E8
:1018E000AE014F5F5F4F0E940D0FBC018981982FA1
:1018F0009970913009F43FC09BE2E1FC04C09E2D39
:101900009170E0FC3AC05E2D5071E82FE87083FFC3
:1019100046C084E0911101C083E0EF2DE81B8F15D4
:1019200008F0E0E0D6018E2F20E2552351F19923F3
:1019300029F0D6019C93C60101966C0196012D5F9A
:101940003F4FE2FE24C08EE4D6018C9391E41196C1
:101950009C93119712968C93D9018E2F90E281114E
:101960001BC0E20FF32FF11D10828EEF9FEF29961F
:10197000ECE00C9468119DE2C6CF90E2C4CF2D93A9
:1019800081508111FCCFCE0ED11CE0E0D0CF8EE68D
:10199000D6018C9391E6DBCF9D938150E0CF482F09
:1019A000447082FF3DC084E0911101C083E08F1537
:1019B00010F4EF2DE81BD6018E2F20E2552309F1FC
:1019C000992329F0D6019C93C60101966C019601DA
:1019D0002D5F3F4FE2FE1BC089E4D6018C938EE45D
:1019E00011968C93119786E412968C93D9018E2FC1
:1019F00090E2882309F4B5CF9D938150FACF2D93BF
:101A000081508111FCCFCE0ED11CE0E0D9CF89E608
:101A1000D6018C938EE611968C93119786E6E4CFCF
:101A20009B0177FF02C030E020E0A1E0B0E091111F
:101A300002C0B0E0A0E0F9013196AE0FBF1F8B2CC1
:101A4000912CBB2009F461C05401EFEFAE1ABE0A1D
:101A5000AA0DBB1DFA161B0619F014F04F2D4A1BD8
:101A6000511188C0E3FC59C07601A42FB0E2A11146
:101A70004FC0C40ED11C992309F45BC040E0D601CD
:101A80001196F60190836D01552309F448C0012F8A
:101A9000060F9A81582F507184FF03C0913309F4C7
:101AA000015010160CF047C0093008F008E0EEE2D3
:101AB000FE2E5B01A01AB1088501919481949108D2
:101AC0002F3F320729F4D601FC92F60131966F01BF
:101AD0006217730794F1021713077CF5DB01A21B51
:101AE000B30BAA24A394B12CAC0EBD1EAA0DBB1D32
:101AF00011968C9121503109D6011196281539057E
:101B0000F4F0F60180836D01DBCFB12CA12CA0CFC6
:101B1000F701B1937F01A150AACF9111B0CFD601A7
:101B2000942F50E302C05D9391509111FCCFC40EED
:101B3000D11C40E0ACCF01E0BACF80E3DBCF62172D
:101B4000730731F4963388F4953311F4552369F013
:101B5000F6018083FD01842F90E2811108C0A40F5B
:101B6000B11D1C9290E080E002CF81E3F1CF919310
:101B70008150F3CF911183CF8ACFB0E0A0E0E3ECA6
:101B8000FDE00C944C115C017B016115710519F0AD
:101B9000DB018D939C9385010F5F1F4FF501D08171
:101BA0008D2F90E00E94E50F6C01892BB9F5DD3295
:101BB000B9F50F5F1F4FD5011196DC91C1E05801B7
:101BC000F1E0AF1AB10843E050E060E770E0C50112
:101BD0000E94EE0F892B69F5680182E0C80ED11CC6
:101BE00045E050E06BE670E0C6010E94EE0F892BE5
:101BF00021F4680197E0C90ED11CE114F10419F039
:101C0000D701CD92DC9260E070E080E89FEFC111D7
:101C1000FFC060E070E080E89FE7FAC05801BBCFEA
:101C2000DB3229F485010E5F1F4FF501D181C0E041
:101C3000C6CF43E050E068E670E0C5010E94EE0FB9
:101C4000892BE9F0F80110E000E020E030E0A90184
:101C50005F01B0ED8B2E8D0E89E08815C8F19C2EAA
:101C6000689491F88C2F8870C2FF16C0811102C051
:101C70000F5F1F4F3196D501DC91C92DE9CFE114DB
:101C8000F10429F00E5F1F4FF7011183008360E01C
:101C900070E080EC9FE7BCC0882311F0015011096F
:101CA000A5E0B0E00E943B119B01AC01220F331F65
:101CB000441F551F280D311D411D511D283999E91B
:101CC0003907490799E15907A8F2C6609C2ED2CF7F
:101CD000AEEF8A1206C0C3FD3CC09C2E689493F8F8
:101CE000C9CFDF7DD534A9F580818D3239F4C0614B
:101CF000DF011296818162E070E006C0DF018B3265
:101D0000C1F3119661E070E080535D01A61AB70A35
:101D10008A30F8F4E0E8CE16ECE0DE065CF4B601BA
:101D2000660F771F660F771FC60ED71ECC0CDD1C03
:101D3000C80ED11C5D01FFEFAF1ABF0A8C91805312
:101D40008A30A8F1C4FF03C0D194C194D1080C0D0E
:101D50001D1DC1FF09C0E114F10431F081E0A81A92
:101D6000B108D701AD92BC92CA01B9010E940B1013
:101D7000C370C33009F490584B015C0120E030E09F
:101D8000A9010E940610882309F440C0CFE9D0E0E1
:101D900017FF05C0119501951109C7E8D0E06E0144
:101DA000B8E1CB1AD10880E2E82EF12C0FC0D501A2
:101DB000B1CFFE0125913591459154910E191F091E
:101DC000C501B4010E946C104B015C01D501C40136
:101DD0000E151F0574F72497F594E794CC16DD06CD
:101DE000A9F78A2F880F8B2F881F8F3F49F020E09B
:101DF00030E0A901C501B4010E940610811106C09E
:101E000082E290E090932F0380932E03C501B401EA
:101E1000CDB7DEB7ECE00C946811283008F027E06D
:101E20003327DA01990F311D87FD91600096610516
:101E3000710539F432602E5F3D9330E32A95E1F766
:101E400008959F3F30F080387105610509F03C5FCF
:101E50003C5F3D93913008F08068911DDF93CF93F4
:101E60001F930F93FF92EF92192F987F9695E92F6A
:101E700096959695E90FFF27E350FF4F9927332753
:101E8000EE24FF24A701E70105900894079428F4A5
:101E9000360FE71EF81E491F511D660F771F881F5A
:101EA000991F0694A1F70590079428F4E70EF81EF1
:101EB000491F561FC11D770F881F991F661F069463
:101EC000A1F70590079428F4F80E491F561FC71F65
:101ED000D11D880F991F661F771F0694A1F70590E3
:101EE000079420F4490F561FC71FD81F990F661F6C
:101EF000771F881F0694A9F784911095177041F0F9
:101F0000D695C79557954795F794E7941A95C1F7D5
:101F1000E3EAF0E0689415901591359165919591FB
:101F200005907FE27395E118F10A430B560BC90B3C
:101F3000D009C0F7E10CF11E431F561FC91FD01D69
:101F40007EF4703311F48A95E6CFE894015030F0B6
:101F5000080F0AF40027021708F4202F2395022FF8
:101F60007A3328F079E37D932A95E9F710C07D93C1
:101F70002A9589F60694979567953795179517943E
:101F8000E118F10A430B560BC90BD00998F02395C1
:101F90007E9173957A3308F070E37C932013B8F741
:101FA0007E9170617D9330F0839571E37D9370E352
:101FB0002A95E1F71124EF90FF900F911F91CF9197
:101FC000DF91992787FD9095089591110C94D91070
:101FD000803219F089508550C8F70895FB01DC0163
:101FE0004150504088F08D9181341CF08B350CF4B9
:101FF000805E659161341CF06B350CF4605E861B6D
:10200000611171F3990B0895881BFCCF0E94481051
:1020100008F481E00895E89409C097FB3EF4909598
:102020008095709561957F4F8F4F9F4F9923A9F0B1
:10203000F92F96E9BB279395F69587957795679540
:10204000B795F111F8CFFAF4BB0F11F460FF1BC084
:102050006F5F7F4F8F4F9F4F16C0882311F096E917
:1020600011C0772321F09EE8872F762F05C06623C5
:1020700071F096E8862F70E060E02AF09A95660F7E
:10208000771F881FDAF7880F9695879597F9089537
:10209000990F0008550FAA0BE0E8FEEF1616170679
:1020A000E807F907C0F012161306E407F50798F0E1
:1020B000621B730B840B950B39F40A2661F0232BFA
:1020C000242B252B21F408950A2609F4A140A69576
:1020D0008FEF811D811D08950E947F100C94F310D5
:1020E0000E94E51038F00E94EC1020F0952311F0CA
:1020F0000C94DC100C94E21011240C9427110E9413
:10210000041170F3959FC1F3950F50E0551F629F26
:10211000F001729FBB27F00DB11D639FAA27F00D40
:10212000B11DAA1F649F6627B00DA11D661F829F67
:102130002227B00DA11D621F739FB00DA11D621F4C
:10214000839FA00D611D221F749F3327A00D611D69
:10215000231F849F600D211D822F762F6A2F11244B
:102160009F5750409AF0F1F088234AF0EE0FFF1F7E
:10217000BB1F661F771F881F91505040A9F79E3FD5
:10218000510580F00C94DC100C9427115F3FE4F3B0
:10219000983ED4F3869577956795B795F795E7952B
:1021A0009F5FC1F7FE2B880F911D9695879597F934
:1021B000089599278827089597F99F6780E870E028
:1021C00060E008959FEF80EC089500240A941616AD
:1021D000170618060906089500240A941216130615
:1021E000140605060895092E0394000C11F48823A3
:1021F00052F0BB0F40F4BF2B11F460FF04C06F5FBF
:102200007F4F8F4F9F4F089557FD9058440F551F94
:1022100059F05F3F71F04795880F97FB991F61F068
:102220009F3F79F087950895121613061406551FDF
:10223000F2CF4695F1DF08C0161617061806991F4B
:10224000F1CF86957105610508940895E894BB2740
:1022500066277727CB0197F90895262FF999FECFA6
:102260001FBA92BD81BD20BD0FB6F894FA9AF99AB3
:102270000FBE019608950E947D11A59F900DB49FF9
:10228000900DA49F800D911D112408952F923F92CF
:102290004F925F926F927F928F929F92AF92BF9276
:1022A000CF92DF92EF92FF920F931F93CF93DF9322
:1022B000CDB7DEB7CA1BDB0B0FB6F894DEBF0FBE7F
:1022C000CDBF09942A88398848885F846E847D84CC
:1022D0008C849B84AA84B984C884DF80EE80FD80CE
:1022E0000C811B81AA81B981CE0FD11D0FB6F89444
:1022F000DEBF0FBECDBFED010895A29FB001B39F19
:10230000C001A39F700D811D1124911DB29F700DFE
:10231000811D1124911D08950E94481008F48FEF2B
:102320000895EE0FFF1F0590F491E02D09940F938F
:102330001F93CF93DF938230910510F482E090E0F9
:10234000E0913203F091330330E020E0B0E0A0E010
:10235000309799F42115310509F44AC0281B390B2F
:1023600024303105D8F58A819B816115710589F189
:10237000FB0193838283FE0111C040815181028160
:10238000138148175907E0F04817590799F4109737
:1023900061F012960C93129713961C933296CF010C
:1023A000DF91CF911F910F91089500933203109305
:1023B0003303F4CF2115310551F04217530738F09C
:1023C000A901DB019A01BD01DF01F801C1CFEF01D5
:1023D000F9CF9093330380933203CDCFFE01E20F08
:1023E000F31F819391932250310939832883D7CFEA
:1023F0002091300330913103232B41F420910201CD
:102400003091030130933103209330032091000178
:10241000309101012115310541F42DB73EB74091AE
:10242000040150910501241B350BE0913003F0911C
:102430003103E217F307A0F42E1B3F0B28173907CF
:1024400078F0AC014E5F5F4F2417350748F04E0F10
:102450005F1F5093310340933003819391939FCF3B
:10246000F0E0E0E09CCFCF93DF930097E9F0FC0130
:10247000329713821282A0913203B0913303ED019F
:1024800030E020E01097A1F420813181820F931F6A
:1024900020913003309131032817390709F061C0CA
:1024A000F0933103E0933003DF91CF910895EA0177
:1024B000CE17DF07E8F54A815B819E014115510582
:1024C000B1F7E901FB83EA8349915991C40FD51F04
:1024D000EC17FD0761F4808191810296840F951FAE
:1024E000E90199838883828193819B838A83F0E0C9
:1024F000E0E012968D919C9113970097B9F52D917C
:102500003C911197CD010296820F931F20913003C9
:10251000309131032817390739F6309751F5109269
:10252000330310923203B0933103A0933003BCCF36
:10253000D383C28340815181840F951FC817D90767
:1025400061F44E5F5F4F88819981480F591F518315
:1025500040838A819B81938382832115310509F011
:10256000B0CFF0933303E09332039ECFFD01DC0143
:10257000C0CF13821282D7CFB0E0A0E0E2ECF2E14C
:102580000C9448118C01009751F4CB010E949711D3
:102590008C01C801CDB7DEB7E0E10C946411FC01F9
:1025A000E60FF71F9C0122503109E217F30708F4E8
:1025B0009DC0D901CD91DC911197C617D70798F02E
:1025C000C530D10530F3CE0104978617970708F37D
:1025D000C61BD70B2297C193D1936D937C93CF01E8
:1025E0000E943312D6CF5B01AC1ABD0A4C018C0E8F
:1025F0009D1EA0913203B0913303512C412CF12C3C
:10260000E12C109731F580913003909131038815BA
:10261000990509F05CC04616570608F058C080912D
:10262000000190910101009741F48DB79EB7409150
:10263000040150910501841B950BE817F90708F078
:1026400055C0F0933103E0933003F9017183608347
:10265000A0CF8D919C91119712966C901297139622
:102660007C901397A815B90559F56C0142E0C40E8A
:10267000D11CCA14DB0420F1AC014A195B09DA0150
:102680001296159780F06282738251834083D9013C
:102690006D937C93E114F10471F0D7011396FC93D0
:1026A000EE93129776CF22968C0F9D1FF90191839E
:1026B0008083F301EFCFF0933303E093320369CFCC
:1026C0004816590608F42C017D01D3019ACFCB019D
:1026D0000E9497117C01009749F0AE01B8010E9459
:1026E0007913C8010E943312870153CF10E000E034
:1026F00050CFFB01DC0102C001900D9241505040CF
:10270000D8F70895FB01DC0101900D920020E1F75C
:10271000089510E0CDEFD0E004C0FE010E949111B9
:102720002196CE3FD107C9F7F894FFCF00003403BC
:102730008000000000007502BC010202C2023302E8
:1027400011022502000000005C0351031804270356
:102750004A0337032803000000008503BC01180466
:102760002703E103F7036D030D0A0054423A0054B6
:10277000423A414C41524D0054656D703A005465E7
:0A2780006D703A414C41524D0000CB
:107E0000112484B714BE81FFF0D085E080938100F7
:107E100082E08093C00088E18093C10086E0809377
:107E2000C20080E18093C4008EE0C9D0259A86E02C
:107E300020E33CEF91E0309385002093840096BBD3
:107E4000B09BFECF1D9AA8958150A9F7CC24DD24C4
:107E500088248394B5E0AB2EA1E19A2EF3E0BF2EE7
:107E6000A2D0813461F49FD0082FAFD0023811F036
:107E7000013811F484E001C083E08DD089C08234E0
:107E800011F484E103C0853419F485E0A6D080C0E4
:107E9000853579F488D0E82EFF2485D0082F10E0AE
:107EA000102F00270E291F29000F111F8ED06801E7
:107EB0006FC0863521F484E090D080E0DECF843638
:107EC00009F040C070D06FD0082F6DD080E0C81688
:107ED00080E7D80618F4F601B7BEE895C0E0D1E017
:107EE00062D089930C17E1F7F0E0CF16F0E7DF06D8
:107EF00018F0F601B7BEE89568D007B600FCFDCFD4
:107F0000A601A0E0B1E02C9130E011968C91119780
:107F100090E0982F8827822B932B1296FA010C0160
:107F200087BEE89511244E5F5F4FF1E0A038BF0790
:107F300051F7F601A7BEE89507B600FCFDCF97BE46
:107F4000E89526C08437B1F42ED02DD0F82E2BD052
:107F50003CD0F601EF2C8F010F5F1F4F84911BD097
:107F6000EA94F801C1F70894C11CD11CFA94CF0C13
:107F7000D11C0EC0853739F428D08EE10CD085E9AC
:107F80000AD08FE07ACF813511F488E018D01DD067
:107F900080E101D065CF982F8091C00085FFFCCF94
:107FA0009093C60008958091C00087FFFCCF809118
:107FB000C00084FD01C0A8958091C6000895E0E648
:107FC000F0E098E1908380830895EDDF803219F02E
:107FD00088E0F5DFFFCF84E1DECF1F93182FE3DFCA
:107FE0001150E9F7F2DF1F91089580E0E8DFEE27F6
:047FF000FF270994CA
:027FFE00040479
:00000001FF
