:020000040000FA
:100000000C94FE000C9426010C9426010C947507A8
:100010000C9475070C9475070C9426010C9426011A
:100020000C9426010C9426010C9426010C942601B4
:100030000C9426010C9426010C9426010C942601A4
:100040000C94B4050C9426010C9424060C94FE0523
:100050000C9426010C9426010C9426010C94260184
:100060000C9456060C9426014E414E494E49545963
:10007000494E46CDCCCC3D0AD7233C17B7D1387773
:10008000CC2B329595E6241FB14F0A000020410089
:1000900000C84200401C4620BCBE4CCA1B0E5AAED3
:1000A000C59D7400407A10F35A00A0724E180900E2
:1000B00010A5D4E80000E87648170000E40B5402CD
:1000C0000000CA9A3B000000E1F505000080969808
:1000D00000000040420F000000A086010000001058
:1000E0002700000000E8030000000064000000009A
:1000F000000A00000000000100000000002C76D87B
:1001000088DC674F0823DFC1DFAE59E1B1B796E560
:10011000E3E453C63AE651997696E8E6C28426EBC4
:10012000898C9B62ED407C6FFCEFBC9C9F40F2BAD7
:10013000A56FA5F490055A2AF75C936B6CF9676D6F
:10014000C11BFCE0E40D47FEF520E6B500D0ED90C4
:100150002E0300943577050080841E080000204E91
:100160000A000000C80C333333330F986E1283112A
:1001700041EF8D2114893BE65516CFFEE6DB18D101
:10018000844B381BF77C1D901DA4BBE424203284D3
:10019000725E228100C9F124ECA1E53D2700000038
:1001A0000800020100000304070000000000000036
:1001B00000000000002300260029000000000024A9
:1001C0000027002A0000000000250028002B000462
:1001D00004040404040404020202020202030303EE
:1001E00003030301020408102040800102040810E8
:1001F0002001020408102000ED070B0C11241FBE83
:10020000CFEFD8E0DEBFCDBF23E0A2E7B1E001C071
:100210001D92A434B207E1F711E0A0E0B1E0E8E4F8
:10022000F8E202C005900D92A237B107D9F710E0AD
:10023000CDEFD0E004C02197FE010E941F12CC3FF9
:10024000D107C9F70E94FE080C9417140C94000003
:1002500090E0FC01E356FE4F2491FC01ED51FE4F6E
:100260003491FC01E153FE4FE491EE23C9F02223C7
:1002700039F0233001F1A8F4213019F1223029F1AD
:10028000F0E0EE0FFF1FEB53FE4FA591B4918FB737
:10029000F894EC91611126C030953E233C938FBFBA
:1002A00008952730A9F02830C9F0243049F780910B
:1002B00080008F7D03C0809180008F7780938000C5
:1002C000DFCF84B58F7784BDDBCF84B58F7DFBCF47
:1002D0008091B0008F778093B000D2CF8091B00032
:1002E0008F7DF9CF3E2BDACF2FB7F8946091610262
:1002F0007091620280916302909164022FBF089511
:1003000081E0809369020E9474016093650270939A
:10031000660280936702909368025C9A299A089516
:100320000895CF93DF93AC01E0914E02F0914F021C
:100330003097F1F090914D0280914C029817C0F0E7
:1003400090E0292F30E02617370754F4D901AE5436
:10035000BE4F240F351FE90128812C939F5FF1CFF9
:1003600010924D0260934C02CB01DF91CF91099422
:10037000DF91CF9108950895AF92BF92CF92DF920F
:10038000EF92FF920F931F93CF93DF936C017B014A
:100390008B01040F151FEB015E01AE18BF08C017DB
:1003A000D10759F06991D601ED91FC910190F0814E
:1003B000E02DC6010995892B79F7C501DF91CF9111
:1003C0001F910F91FF90EF90DF90CF90BF90AF9073
:1003D0000895FC01538D448D252F30E0842F90E04B
:1003E000821B930B541710F0CF9608950197089530
:1003F000FC01918D828D981761F0A28DAE0FBF2FF9
:10040000B11D5D968C91928D9F5F9F73928F90E04E
:1004100008958FEF9FEF0895FC01918D828D9817BD
:1004200031F0828DE80FF11D858D90E008958FEFFA
:100430009FEF0895FC01918D228D892F90E0805CC3
:100440009F4F821B91098F73992708958AE692E046
:100450000E941A0221E0892B09F420E0822F0895DE
:1004600080E090E0892B29F00E94260281110C94F3
:1004700000000895FC01A48DA80FB92FB11DA35A47
:10048000BF4F2C91848D90E001968F739927848FB4
:10049000A689B7892C93A089B1898C9183708064D7
:1004A0008C93938D848D981306C00288F389E02D78
:1004B00080818F7D80830895EF92FF920F931F9329
:1004C000CF93DF93EC0181E0888F9B8D8C8D981307
:1004D0001AC0E889F989808185FF15C09FB7F89413
:1004E000EE89FF896083E889F9898081837080645F
:1004F00080839FBF81E090E0DF91CF911F910F91AA
:10050000FF90EF900895F62E0B8D10E00F5F1F4FB8
:100510000F731127E02E8C8D8E110CC00FB607FCC7
:10052000FACFE889F989808185FFF5CFCE010E9455
:100530003A02F1CFEB8DEC0FFD2FF11DE35AFF4F87
:10054000F0829FB7F8940B8FEA89FB8980818062E3
:10055000CFCFCF93DF93EC01888D8823B9F0AA89A0
:10056000BB89E889F9898C9185FD03C0808186FD6E
:100570000DC00FB607FCF7CF8C9185FFF2CF8081BD
:1005800085FFEDCFCE010E943A02E9CFDF91CF91F6
:1005900008952091F801260F3327331F21323105AA
:1005A000ECF420911C02FC0190E080E0243069F022
:1005B00082E00895A091F8012191AC0148525E4F6C
:1005C000A40FB52FB11D2C930196861798F3809137
:1005D000F801680F6093F80180E0089581E00895C4
:1005E00010921C0281E080931E0210921D0261E0B5
:1005F00082E10E94280161E083E10E942801E9EB89
:10060000F0E080818E7F808380818D7F808388E48D
:100610008093B80085E48093BC0008950895E0912C
:100620004D0280914C02E81730F4F0E0EE54FE4F9A
:10063000808190E008958FEF9FEF089590914D0293
:1006400080914C022FEF3FEF981748F4E92FF0E02C
:10065000EE54FE4F208130E09F5F90934D02C90120
:10066000089580914C0290914D02891B990B089539
:10067000CF93DF93CB01EA01642F0E94C902CE0120
:10068000DF91CF910895CF93DF931F92CDB7DEB75F
:10069000698361E0CE0101960E94C90281E090E089
:1006A0000F90DF91CF91089520914402309145023F
:1006B0002817390771F490914202809143029817EC
:1006C00041F0E0914202F0E0EE58FE4F808190E070
:1006D00008958FEF9FEF0895EF92FF920F931F936E
:1006E000CF93DF93DC015C96ED90FC905D97E11475
:1006F000F10479F481E090E013969C938E93129725
:1007000090E080E0DF91CF911F910F91FF90EF90EB
:1007100008955196ED91FC91529750968C91509777
:10072000982F90950FB75E962C915E97122F1270AE
:1007300021FD6095F8942081112319F1282B208345
:10074000E7012197F1F728E0462F50E0308160FF64
:100750001AC0382B3083E7012197F1F7BA0175955C
:100760006795215089F7112381F080818923808347
:100770000FBF5C968D919C910197F1F781E090E01D
:10078000C1CF2923DCCF3923E5CF9081892BEFCF4F
:1007900020914402309145022817390761F4809175
:1007A00043022091420290E0805C9F4F821B91099E
:1007B0008F739927089590E080E008952091440276
:1007C0003091450228173907B9F49091420280917F
:1007D0004302981789F0E0914202F0E0EE58FE4F94
:1007E00080812091420230E02F5F3F4F2F733327EB
:1007F0002093420290E008958FEF9FEF089590E0DC
:1008000080E0089542E050E06CE371E08AE692E017
:100810000C94BC01CF93DF93FC0101900020E9F719
:100820003197AF01481B590BBC018AE692E00E9448
:10083000BC01EC010E9402048C0F9D1FDF91CF913F
:100840000895CF93DF93FC014481558160817181CC
:100850008AE692E00E94BC01EC010E9402048C0F27
:100860009D1FDF91CF9108950F931F93CF93DF9337
:10087000EC0188819981009759F02A813B812617E4
:10088000370730F081E0DF91CF911F910F910895EC
:100890008B016F5F7F4F0E944A13009759F0998335
:1008A00088831B830A832C813D81232B59F7FC010C
:1008B0001082E8CF80E0E7CFEF92FF920F931F9373
:1008C000CF93DF936115710541F480E0DF91CF9103
:1008D0001F910F91FF90EF90089541155105B1F0D0
:1008E0007B01EC010C811D81040F151FB8010E94D2
:1008F0003404882351F3288139818C819D81B7018B
:10090000820F931F0E9410141D830C8381E0DECFA1
:10091000CF93DF93EC0188819981009711F00E94B9
:10092000C112198218821D821C821B821A82DF91D9
:10093000CF910895EF92FF920F931F93CF93DF9380
:10094000EC017B018A01BA010E94340481110BC0C1
:10095000CE010E948804CE01DF91CF911F910F91AB
:10096000FF90EF9008951D830C83B70188819981D2
:100970000E941014F0CFFB0101900020E9F731979D
:10098000AF01461B570B0C949A04CF93DF93EC01F5
:10099000FB018617970749F0608171816115710528
:1009A00041F0448155810E949A04CE01DF91CF919C
:1009B00008950E948804F9CFFC01118210821382ED
:1009C000128215821482FB0101900020E9F7319711
:1009D000AF01461B570B0C949A04FC018081918156
:1009E000009711F00C94C1120895CF93DF9385ED19
:1009F0008093BC008091D4019091D501A091D60143
:100A0000B091D7010796A11DB11D23E0B695A7951A
:100A1000979587952A95D1F72091BC0024FD03C0B6
:100A200010921C0236C04091D4015091D5016091C2
:100A3000D6017091D701452B462B472B69F30097C0
:100A4000A105B10541F02AE22A95F1F700C001970E
:100A5000A109B109E1CF8091D30191E09093D20136
:100A60008823B9F0C091B800D091BA008091BC0041
:100A70008A7B8093BC0060E082E10E94280160E0F4
:100A800083E10E9428010E94F002D093BA00C09333
:100A9000B800DF91CF910895CF93DF93CDB7DEB744
:100AA00068970FB6F894DEBF0FBECDBF87E093E026
:100AB0000E941E031C8A1B8A1E8A1D8A188E1F8A8A
:100AC0004AE0BE016F5F7F4F0E94500CBE016F5F16
:100AD0007F4FCE0143960E94BB04809138039091D2
:100AE0003903009751F16B897C896115710519F102
:100AF00040913A0350913B032F89388D4217530799
:100B0000D0F00E9410148F89988D90933D038093AC
:100B10003C03188E1F8ACE0143960E94ED0481E0AB
:100B200080935B0268960FB6F894DEBF0FBECDBF10
:100B3000DF91CF9108950E94C1128B899C89909377
:100B40003903809338038D899E8990933B0380936A
:100B50003A038F89988D90933D0380933C031C8AC0
:100B60001B8A1E8A1D8AD5CF1F920F920FB60F9235
:100B700011242F933F938F939F93AF93BF938091B3
:100B8000610290916202A0916302B091640230917F
:100B9000600223E0230F2D3758F50196A11DB11DEA
:100BA000209360028093610290936202A09363029B
:100BB000B093640280915C0290915D02A0915E020C
:100BC000B0915F020196A11DB11D80935C029093CC
:100BD0005D02A0935E02B0935F02BF91AF919F91BF
:100BE0008F913F912F910F900FBE0F901F901895EE
:100BF00026E8230F0296A11DB11DD2CF1F920F929E
:100C00000FB60F9211242F933F934F935F936F93DF
:100C10007F938F939F93AF93BF93EF93FF938AE656
:100C200092E00E943A02FF91EF91BF91AF919F91A4
:100C30008F917F916F915F914F913F912F910F9085
:100C40000FBE0F901F9018951F920F920FB60F9224
:100C500011242F938F939F93EF93FF93E0917A0248
:100C6000F0917B028081E0918002F091810282FD0F
:100C70001BC09081809183028F5F8F7320918402CB
:100C8000821741F0E0918302F0E0E659FD4F958F25
:100C900080938302FF91EF919F918F912F910F90FD
:100CA0000FBE0F901F9018958081F4CF1F920F9266
:100CB0000FB60F9211242F933F934F935F936F932F
:100CC0007F938F939F93AF93BF93EF93FF93809105
:100CD000B900887F803609F44AC0F0F5883209F4FB
:100CE000A7C018F5803109F49BC0B8F4882309F433
:100CF000F9C0883009F494C0FF91EF91BF91AF9192
:100D00009F918F917F916F915F914F913F912F9123
:100D10000F900FBE0F901F901895883109F488C06E
:100D2000803251F780931B0214C0803409F49DC0B7
:100D300040F48033B9F38833F9F680931B0285ECD5
:100D4000B0C0803509F485C0883509F496C0883470
:100D500099F60E94F504D0CF883909F48CC038F593
:100D6000883729F050F4883611F0803729F683E06F
:100D700080931C0210921A0257C0883809F47BC075
:100D8000803919F0803809F0B7CF80911A0280328B
:100D900008F071C0E0911A0281E08E0F80931A0270
:100DA0008091BB00F0E0E650FE4F80833DC0803B69
:100DB00039F0E0F4803A09F479C0883A09F09CCF20
:100DC00084E080931C021092F9011092F801E091E6
:100DD0004802F091490209958091F80181110FC0F4
:100DE00081E08093F8011092D80109C0803C09F499
:100DF000A6CF883C09F4A3CF883B09F07DCFE091D2
:100E0000F90181E08E0F8093F901F0E0E852FE4F86
:100E100080818093BB009091F9018091F80129C0F5
:100E2000809141028093BB0085EC8093BC0064CF2D
:100E30009091400280913F02981758F5E09140024E
:100E400081E08E0F80934002F0E0E15EFD4F8081F3
:100E5000E9CFE091400281E08E0F809340028091C3
:100E6000BB00F0E0E15EFD4F8083909140028091F5
:100E70003F029817C8F285E8D8CFE091400281E0A0
:100E80008E0F809340028091BB00F0E0E15EFD4F49
:100E9000808380911E0281115CCF81E080931D02CE
:100EA00084EA8093BC0010921C0226CF85EC8093CC
:100EB000BC0010921C0280911A02803230F4E09142
:100EC0001A02F0E0E650FE4F108260911A0270E0C4
:100ED000E0914602F09147028AEF91E00995109265
:100EE0001A020ACF10921B0234CF1F920F920FB634
:100EF0000F9211242F933F934F935F936F937F93A0
:100F00008F939F93AF93BF93EF93FF93E09144022E
:100F1000F0914502309749F0A685B7858585968D75
:100F200091FF14C09C918923A1F4FF91EF91BF918F
:100F3000AF919F918F917F916F915F914F913F9171
:100F40002F910F900FBE0F901F9018959C918923A1
:100F500061F7A389B4899C918589809589238C93B5
:100F6000868997890197F1F7608D718DA685B78580
:100F7000558538E020E0CB010197F1F7822F90E012
:100F800095958795282F4C91452309F0206831507D
:100F900091F7868D81FD20958091430290E0019626
:100FA0008F73992730914202381799F0A09143022C
:100FB000B0E0AE58BE4F2C9380934302828D938D48
:100FC0000197F1F7A389B4898C919589892B8C932A
:100FD000ACCF868D8160868FF1CFCF92DF92EF927A
:100FE000FF920F931F93CF93DF9310926D02109295
:100FF0006C02E8EECE2EE3E0DE2EE12CF12CC09266
:101000006E02D0926F02E0927002F09271028AE05A
:1010100091E090936B0280936A0285EC90E090934C
:1010200077028093760284EC90E09093790280932B
:10103000780280EC90E090937B0280937A0281ECBE
:1010400090E090937D0280937C0282EC90E09093FC
:101050007F0280937E0286EC90E0909381028093E1
:1010600080021092830210928402109285021092E4
:10107000860210920A0310920903C0920B03D092C9
:101080000C03E0920D03F0920E038CE191E090933B
:101090000803809307036EE371E088E393E00E9406
:1010A000DC046EE371E082E393E00E94DC041092C2
:1010B000160310921503C0921703D0921803E09202
:1010C0001903F0921A038EE291E090931403809337
:1010D000130310922A031092290310922C031092EA
:1010E0002B0310922E0310922D03109230031092B6
:1010F0002F03609131036E7F6D7F6093310366959E
:10110000617081E068278BE00E9428014EEE51E07B
:10111000FA0164918AED91E0FC012491222399F077
:1011200030E0220F331FF901E554FE4FA591B49131
:10113000F901EB53FE4F259134912FB7F8943C9170
:10114000632B6C932FBFFA01449140932303FC015E
:101150008491E82FF0E0EE0FFF1FEB53FE4F8591D7
:10116000949190932503809324030DEE11E0F801F0
:101170002491C9EDD1E0FE0184918823C9F090E06B
:10118000880F991FFC01E554FE4FA591B491FC0115
:10119000EB53FE4F459154913FB7F8949C91822FA9
:1011A000809598239C93FA019081892380833FBF87
:1011B0008091310381FD04C061E08AE00E94280132
:1011C0008AE080931F03F801049100932003FE013D
:1011D000C491EC2FF0E0EE0FFF1FEF54FE4F85910E
:1011E00094919093220380932103DF91CF911F91DB
:1011F0000F91FF90EF90DF90CF900895CF93DF9302
:10120000CDB7DEB7AE970FB6F894DEBF0FBECDBF39
:10121000789484B5826084BD84B5816084BD85B5D1
:10122000826085BD85B5816085BD80916E008160DD
:1012300080936E0010928100809181008260809383
:101240008100809181008160809381008091800085
:101250008160809380008091B10084608093B100B0
:101260008091B00081608093B00080917A008460AA
:1012700080937A0080917A00826080937A008091D6
:101280007A00816080937A0080917A0080688093F0
:101290007A001092C100E0917A02F0917B0282E024
:1012A0008083E0917602F09177021082E0917802DB
:1012B000F091790280E1808310928202E0917E02B7
:1012C000F0917F0286E08083E0917C02F0917D02C4
:1012D000808180618083E0917C02F0917D02808139
:1012E00088608083E0917C02F0917D02808180683B
:1012F0008083E0917C02F0917D0280818F7D8083EC
:1013000010922E0310922D0310922C0310922B0397
:1013100010922A03109229038FE190E090933003FA
:1013200080932F0390911F03963108F047C021E06E
:1013300030E030932A03209329032DE130E03093ED
:101340002C0320932B032DE030E030932E032093C9
:101350002D032091680084E0983048F031E09E3001
:1013600008F430E081E001C0880F3A95EAF7822B5B
:10137000809368002DE630E0983050F02BE630E0A6
:101380009E3030F02CE630E0963110F030E020E076
:101390003093270320932603292F30E0983008F05C
:1013A00000C281E001C0880F9A95EAF78093280374
:1013B00080912F03909130030197F1F780912D03D5
:1013C00090912E03892B49F1E0914402F09145025E
:1013D00023E0E331F20709F1309739F0A389B489AA
:1013E0009C918589809589238C93809131038E7F90
:1013F00080933103109243021092420283E193E002
:101400009093450280934402E0912603F0912703D4
:10141000808190912803892B8083219A209A579A62
:10142000549A0E9474016093500270935102809309
:101430005202909353020E9474016093540270937D
:101440005502809356029093570210924D021092CB
:101450004C0210924B0210924A020E94F00280E964
:1014600091E0909349028093480281E991E0909342
:1014700047028093460282E08093BA008CE495E0B4
:1014800090934F0280934E0280E0C82E80E0D82EC9
:10149000FF24F3940E9474018AE692E00E941A02EB
:1014A000181619064CF48AE692E00E94F8018A3078
:1014B00009F084C1F092590280915B02882309F4FB
:1014C0007DC0289A8091380390913903009709F4E0
:1014D00099C10E944C0C0E94E4114B015C011CA2BA
:1014E0001BA21EA21DA218A61FA22AE0AE014F5FDA
:1014F0005F4F0E945B0CBE016F5F7F4FCE018396F2
:101500000E94BB046FE371E0CE0101960E94DC04EF
:101510004FA158A56BA17CA1CE0101960E945C044D
:10152000811104C0CE0101960E9488041AA619A652
:101530001CA61BA61EA61DA6BE016F5F7F4FCE0177
:1015400089960E94C504CE0101960E94ED04CE0149
:1015500083960E94ED04CE0189960E942104C50164
:10156000B4010E94651020E030E048E452E40E949B
:101570001A121816ACF463E471E0CE0101960E94D1
:10158000DC040E948001CE0101960E94ED0461E01E
:1015900090E080E00E9485118CE491E00E940A04B2
:1015A0006EE371E088E393E00E94BB0410925B025B
:1015B000CE0189960E94ED04F0925A028091590260
:1015C000882309F47FC05F9A80913203909133039E
:1015D000812C912C5401009721F00E944C0C4B015E
:1015E0005C011CA21BA21EA21DA218A61FA28E0196
:1015F0000F5F1F4F22E044E0C501B4010E942E0C92
:10160000009709F403C1BC01CE0183960E94BB047C
:1016100066E571E0CE0101960E94DC044FA158A559
:101620006BA17CA1CE0101960E945C04811104C0D3
:10163000CE0101960E9488041AA619A61CA61BA614
:101640001EA61DA6BE016F5F7F4FCE0189960E9428
:10165000C504CE0101960E94ED04CE0183960E943E
:10166000ED04CE0189960E94210420E030E040EF95
:1016700051E4C501B4010E941A121816ACF46CE5CD
:1016800071E0CE0101960E94DC040E948001CE012F
:1016900001960E94ED0461E081E090E00E948511D6
:1016A00087E691E00E940A046EE371E082E393E032
:1016B0000E94BB0410925902CE0189960E94ED044B
:1016C000F09258020E947401009154021091550248
:1016D0002091560230915702601B710B820B930BC5
:1016E000693E73408105910588F0809158028823F6
:1016F00069F05F98109258020E947401609354023E
:101700007093550280935602909357020E94740181
:1017100000915002109151022091520230915302D7
:10172000601B710B820B930B693E73408105910521
:1017300088F080915A02882369F028980E947401E9
:10174000609350027093510280935202909353021F
:1017500010925A02809169028823B9F00E947401A4
:101760000091650210916602209167023091680233
:10177000601B710B820B930B6039714081059105E1
:1017800020F05C98299810926902C114D10409F4E0
:1017900081CE0E942602882309F47CCE0E9400009C
:1017A00079CE9E3040F42850310981E001C0880F85
:1017B0002A95EAF7FBCD2E503109F7CF89831A829B
:1017C00000913603109137030F5F1F4FB80182E37A
:1017D00093E00E943404882309F45ECE2091320302
:1017E000309133038091360390913703BE016F5FD0
:1017F0007F4F820F931F0E941014109337030093A2
:1018000036034ACE60E070E0CB0165CECE01839610
:101810000E948804FDCE8EE291E0909314038093A1
:10182000130380914402909145028351934071F4D7
:10183000E0912603F0912703908180912803809501
:1018400089238083109245021092440282E393E040
:101850000E94ED0488E393E00C94ED04EF920F9363
:101860001F93CF93DF93E80134E047FD34E1042E6A
:10187000000C550B57FF03C0519541955109E32EBC
:10188000022F242FAE010E94A60CCE01DF91CF9132
:101890001F910F91EF900895662777270C94050EFE
:1018A000BB274A3031F4992322F4BDE2909581950B
:1018B0009F4F0C948D0CBB272A3051F4992342F48E
:1018C000BDE290958095709561957F4F8F4F9F4FAA
:1018D0000C946B0CBB27FA01A62F621771058105CA
:1018E0009105330B30FB66F0AA27660F771F881F20
:1018F000991FAA1FA21710F0A21B63953850A9F7D1
:10190000A05DAA3308F0A95DA19336F7B111B19398
:101910001082CA010C944E10BB27FB015527AA2741
:10192000880F991FAA1FA41710F0A41B839550516C
:10193000B9F7A05DAA3308F0A95DA193009779F7E4
:10194000B111B1931192CB010C944E10A9E0B0E00B
:10195000ECEAFCE00C94A4116A01F22EB02E102FD8
:10196000FBE3AF2EA01608F41BE31F5F012F27E057
:10197000AE014F5F5F4F0E94550FBC018981982FC8
:101980009970913009F43FC09BE2E1FC04C09E2DA8
:101990009170E0FC3AC05E2D5071E82FE87083FF33
:1019A00046C084E0911101C083E0EF2DE81B8F1544
:1019B00008F0E0E0D6018E2F20E2552351F1992363
:1019C00029F0D6019C93C60101966C0196012D5F0A
:1019D0003F4FE2FE24C08EE4D6018C9391E4119631
:1019E0009C93119712968C93D9018E2F90E28111BE
:1019F0001BC0E20FF32FF11D10828EEF9FEF29968F
:101A0000ECE00C94C0119DE2C6CF90E2C4CF2D93C0
:101A100081508111FCCFCE0ED11CE0E0D0CF8EE6FC
:101A2000D6018C9391E6DBCF9D938150E0CF482F78
:101A3000447082FF3DC084E0911101C083E08F15A6
:101A400010F4EF2DE81BD6018E2F20E2552309F16B
:101A5000992329F0D6019C93C60101966C01960149
:101A60002D5F3F4FE2FE1BC089E4D6018C938EE4CC
:101A700011968C93119786E412968C93D9018E2F30
:101A800090E2882309F4B5CF9D938150FACF2D932E
:101A900081508111FCCFCE0ED11CE0E0D9CF89E678
:101AA000D6018C938EE611968C93119786E6E4CF3F
:101AB0009B0177FF02C030E020E0A1E0B0E091118F
:101AC00002C0B0E0A0E0F9013196AE0FBF1F8B2C31
:101AD000912CBB2009F461C05401EFEFAE1ABE0A8D
:101AE000AA0DBB1DFA161B0619F014F04F2D4A1B48
:101AF000511188C0E3FC59C07601A42FB0E2A111B6
:101B00004FC0C40ED11C992309F45BC040E0D6013C
:101B10001196F60190836D01552309F448C0012FF9
:101B2000060F9A81582F507184FF03C0913309F436
:101B3000015010160CF047C0093008F008E0EEE242
:101B4000FE2E5B01A01AB108850191948194910841
:101B50002F3F320729F4D601FC92F60131966F012E
:101B60006217730794F1021713077CF5DB01A21BC0
:101B7000B30BAA24A394B12CAC0EBD1EAA0DBB1DA1
:101B800011968C9121503109D601119628153905ED
:101B9000F4F0F60180836D01DBCFB12CA12CA0CF36
:101BA000F701B1937F01A150AACF9111B0CFD60117
:101BB000942F50E302C05D9391509111FCCFC40E5D
:101BC000D11C40E0ACCF01E0BACF80E3DBCF62179D
:101BD000730731F4963388F4953311F4552369F083
:101BE000F6018083FD01842F90E2811108C0A40FCB
:101BF000B11D1C9290E080E002CF81E3F1CF919380
:101C00008150F3CF911183CF8ACFB0E0A0E0EBE019
:101C1000FEE00C94A4115C017B016115710519F0C3
:101C2000DB018D939C9385010F5F1F4FF501D081E0
:101C30008D2F90E00E942D106C01892BB9F5DD32BB
:101C4000B9F50F5F1F4FD5011196DC91C1E0580126
:101C5000F1E0AF1AB10843E050E060E770E0C50181
:101C60000E943610892B69F5680182E0C80ED11CEC
:101C700045E050E06BE670E0C6010E943610892B0B
:101C800021F4680197E0C90ED11CE114F10419F0A8
:101C9000D701CD92DC9260E070E080E89FEFC11147
:101CA000FFC060E070E080E89FE7FAC05801BBCF5A
:101CB000DB3229F485010E5F1F4FF501D181C0E0B1
:101CC000C6CF43E050E068E670E0C5010E943610E0
:101CD000892BE9F0F80110E000E020E030E0A901F4
:101CE0005F01B0ED8B2E8D0E89E08815C8F19C2E1A
:101CF000689491F88C2F8870C2FF16C0811102C0C1
:101D00000F5F1F4F3196D501DC91C92DE9CFE1144A
:101D1000F10429F00E5F1F4FF7011183008360E08B
:101D200070E080EC9FE7BCC0882311F001501109DE
:101D3000A5E0B0E00E9493119B01AC01220F331F7C
:101D4000441F551F280D311D411D511D283999E98A
:101D50003907490799E15907A8F2C6609C2ED2CFEE
:101D6000AEEF8A1206C0C3FD3CC09C2E689493F867
:101D7000C9CFDF7DD534A9F580818D3239F4C061BA
:101D8000DF011296818162E070E006C0DF018B32D4
:101D9000C1F3119661E070E080535D01A61AB70AA5
:101DA0008A30F8F4E0E8CE16ECE0DE065CF4B6012A
:101DB000660F771F660F771FC60ED71ECC0CDD1C73
:101DC000C80ED11C5D01FFEFAF1ABF0A8C91805382
:101DD0008A30A8F1C4FF03C0D194C194D1080C0D7E
:101DE0001D1DC1FF09C0E114F10431F081E0A81A02
:101DF000B108D701AD92BC92CA01B9010E9463102B
:101E0000C370C33009F490584B015C0120E030E00E
:101E1000A9010E945E10882309F440C0CFE9D0E0F8
:101E200017FF05C0119501951109C7E8D0E06E01B3
:101E3000B8E1CB1AD10880E2E82EF12C0FC0D50111
:101E4000B1CFFE0125913591459154910E191F098D
:101E5000C501B4010E94C4104B015C01D501C4014D
:101E60000E151F0574F72497F594E794CC16DD063C
:101E7000A9F78A2F880F8B2F881F8F3F49F020E00A
:101E800030E0A901C501B4010E945E10811106C0B5
:101E900082E290E090933F0380933E03C501B4013A
:101EA000CDB7DEB7ECE00C94C011283008F027E085
:101EB0003327DA01990F311D87FD91600096610586
:101EC000710539F432602E5F3D9330E32A95E1F7D6
:101ED00008959F3F30F080387105610509F03C5F3F
:101EE0003C5F3D93913008F08068911DDF93CF9364
:101EF0001F930F93FF92EF92192F987F9695E92FDA
:101F000096959695E90FFF27E350FF4F99273327C2
:101F1000EE24FF24A701E70105900894079428F414
:101F2000360FE71EF81E491F511D660F771F881FC9
:101F3000991F0694A1F70590079428F4E70EF81E60
:101F4000491F561FC11D770F881F991F661F0694D2
:101F5000A1F70590079428F4F80E491F561FC71FD4
:101F6000D11D880F991F661F771F0694A1F7059052
:101F7000079420F4490F561FC71FD81F990F661FDB
:101F8000771F881F0694A9F784911095177041F068
:101F9000D695C79557954795F794E7941A95C1F745
:101FA000E3EAF0E06894159015913591659195916B
:101FB00005907FE27395E118F10A430B560BC90BAC
:101FC000D009C0F7E10CF11E431F561FC91FD01DD9
:101FD0007EF4703311F48A95E6CFE894015030F026
:101FE000080F0AF40027021708F4202F2395022F68
:101FF0007A3328F079E37D932A95E9F710C07D9331
:102000002A9589F6069497956795379517951794AD
:10201000E118F10A430B560BC90BD00998F0239530
:102020007E9173957A3308F070E37C932013B8F7B0
:102030007E9170617D9330F0839571E37D9370E3C1
:102040002A95E1F71124EF90FF900F911F91CF9106
:10205000DF91992787FD9095089591110C94311186
:10206000803219F089508550C8F70895FB01DC01D2
:102070004150504088F08D9181341CF08B350CF428
:10208000805E659161341CF06B350CF4605E861BDC
:10209000611171F3990B0895881BFCCFDC01FC01E1
:1020A000672F71917723E1F7329704C07C916D938C
:1020B00070836291AE17BF07C8F308950E94A01005
:1020C00008F481E00895E89409C097FB3EF49095E8
:1020D0008095709561957F4F8F4F9F4F9923A9F001
:1020E000F92F96E9BB279395F69587957795679590
:1020F000B795F111F8CFFAF4BB0F11F460FF1BC0D4
:102100006F5F7F4F8F4F9F4F16C0882311F096E966
:1021100011C0772321F09EE8872F762F05C0662314
:1021200071F096E8862F70E060E02AF09A95660FCD
:10213000771F881FDAF7880F9695879597F9089586
:10214000990F0008550FAA0BE0E8FEEF16161706C8
:10215000E807F907C0F012161306E407F50798F030
:10216000621B730B840B950B39F40A2661F0232B49
:10217000242B252B21F408950A2609F4A140A695C5
:102180008FEF811D811D08950E94D7100C944B1173
:102190000E943D1138F00E94441120F0952311F067
:1021A0000C9434110C943A1111240C947F110E9458
:1021B0005C1170F3959FC1F3950F50E0551F629F1E
:1021C000F001729FBB27F00DB11D639FAA27F00D90
:1021D000B11DAA1F649F6627B00DA11D661F829FB7
:1021E0002227B00DA11D621F739FB00DA11D621F9C
:1021F000839FA00D611D221F749F3327A00D611DB9
:10220000231F849F600D211D822F762F6A2F11249A
:102210009F5750409AF0F1F088234AF0EE0FFF1FCD
:10222000BB1F661F771F881F91505040A9F79E3F24
:10223000510580F00C9434110C947F115F3FE4F34E
:10224000983ED4F3869577956795B795F795E7957A
:102250009F5FC1F7FE2B880F911D9695879597F983
:10226000089599278827089597F99F6780E870E077
:1022700060E008959FEF80EC089500240A941616FC
:10228000170618060906089500240A941216130664
:10229000140605060895092E0394000C11F48823F2
:1022A00052F0BB0F40F4BF2B11F460FF04C06F5F0E
:1022B0007F4F8F4F9F4F089557FD9058440F551FE4
:1022C00059F05F3F71F04795880F97FB991F61F0B8
:1022D0009F3F79F087950895121613061406551F2F
:1022E000F2CF4695F1DF08C0161617061806991F9B
:1022F000F1CF86957105610508940895E894BB2790
:1023000066277727CB0197F90895262FF999FECFF5
:102310001FBA92BD81BD20BD0FB6F894FA9AF99A02
:102320000FBE019608950E94D511A59F900DB49FF0
:10233000900DA49F800D911D112408952F923F921E
:102340004F925F926F927F928F929F92AF92BF92C5
:10235000CF92DF92EF92FF920F931F93CF93DF9371
:10236000CDB7DEB7CA1BDB0B0FB6F894DEBF0FBECE
:10237000CDBF09942A88398848885F846E847D841B
:102380008C849B84AA84B984C884DF80EE80FD801D
:102390000C811B81AA81B981CE0FD11D0FB6F89493
:1023A000DEBF0FBECDBFED010895A29FB001B39F68
:1023B000C001A39F700D811D1124911DB29F700D4E
:1023C000811D1124911D08950E94EB116894B11193
:1023D0000C947F1108950E94641188F09F5798F023
:1023E000B92F9927B751B0F0E1F0660F771F881F1A
:1023F000991F1AF0BA95C9F714C0B13091F00E9434
:102400007E11B1E008950C947E11672F782F8827F4
:10241000B85F39F0B93FCCF3869577956795B3955A
:10242000D9F73EF490958095709561957F4F8F4FC9
:102430009F4F08950E94A01008F48FEF0895EE0FAB
:10244000FF1F0590F491E02D09940F931F93CF93F4
:10245000DF938230910510F482E090E0E091420336
:10246000F091430330E020E0B0E0A0E0309799F431
:102470002115310509F44AC0281B390B24303105D8
:10248000D8F58A819B816115710589F1FB019383E0
:102490008283FE0111C0408151810281138148175E
:1024A0005907E0F04817590799F4109761F0129610
:1024B0000C93129713961C933296CF01DF91CF9114
:1024C0001F910F9108950093420310934303F4CF9B
:1024D0002115310551F04217530738F0A901DB01EE
:1024E0009A01BD01DF01F801C1CFEF01F9CF90934F
:1024F000430380934203CDCFFE01E20FF31F81938C
:1025000091932250310939832883D7CF20914003FA
:1025100030914103232B41F42091020130910301BA
:102520003093410320934003209100013091010139
:102530002115310541F42DB73EB74091040150916A
:102540000501241B350BE0914003F0914103E21794
:10255000F307A0F42E1B3F0B2817390778F0AC01C6
:102560004E5F5F4F2417350748F04E0F5F1F5093A3
:10257000410340934003819391939FCFF0E0E0E0CB
:102580009CCFCF93DF930097E9F0FC013297138241
:102590001282A0914203B0914303ED0130E020E0AC
:1025A0001097A1F420813181820F931F2091400365
:1025B000309141032817390709F061C0F0934103B6
:1025C000E0934003DF91CF910895EA01CE17DF0732
:1025D000E8F54A815B819E0141155105B1F7E9019A
:1025E000FB83EA8349915991C40FD51FEC17FD076E
:1025F00061F4808191810296840F951FE90199838E
:102600008883828193819B838A83F0E0E0E0129645
:102610008D919C9113970097B9F52D913C9111974D
:10262000CD010296820F931F209140033091410308
:102630002817390739F6309751F510924303109255
:102640004203B0934103A0934003BCCFD383C28322
:1026500040815181840F951FC817D90761F44E5FDF
:102660005F4F88819981480F591F518340838A8128
:102670009B81938382832115310509F0B0CFF093BC
:102680004303E09342039ECFFD01DC01C0CF1382E0
:102690001282D7CFB0E0A0E0E0E5F3E10C94A01106
:1026A0008C01009751F4CB010E9425128C01C801C6
:1026B000CDB7DEB7E0E10C94BC11FC01E60FF71FCB
:1026C0009C0122503109E217F30708F49DC0D9019B
:1026D000CD91DC911197C617D70798F0C530D10579
:1026E00030F3CE0104978617970708F3C61BD70B64
:1026F0002297C193D1936D937C93CF010E94C11215
:10270000D6CF5B01AC1ABD0A4C018C0E9D1EA09168
:102710004203B0914303512C412CF12CE12C109732
:1027200031F580914003909141038815990509F096
:102730005CC04616570608F058C080910001909181
:102740000101009741F48DB79EB74091040150916B
:102750000501841B950BE817F90708F055C0F093A5
:102760004103E0934003F90171836083A0CF8D9111
:102770009C91119712966C90129713967C901397D8
:10278000A815B90559F56C0142E0C40ED11CCA1454
:10279000DB0420F1AC014A195B09DA0112961597A6
:1027A00080F06282738251834083D9016D937C9360
:1027B000E114F10471F0D7011396FC93EE93129794
:1027C00076CF22968C0F9D1FF90191838083F301B0
:1027D000EFCFF0934303E093420369CF48165906C5
:1027E00008F42C017D01D3019ACFCB010E94251260
:1027F0007C01009749F0AE01B8010E940714C8019E
:102800000E94C112870153CF10E000E050CFFB01BE
:10281000DC0102C001900D9241505040D8F708955C
:10282000FB01DC0101900D920020E1F7089510E01A
:10283000CDEFD0E004C0FE010E941F122196CE3FD2
:10284000D107C9F7F894FFCF0000440380000000CF
:1028500000005C02BC01E901A9021A02F8010C02A5
:102860000000000043033803FF030E0331031E037F
:102870000F03000000006C03BC01FF030E03C8033C
:10288000DE0354030D0A0054423A0054423A414CCC
:1028900041524D0054423A20414C45525400546537
:1028A0006D703A0054656D703A414C41524D005480
:0A28B000656D703A414C455254002A
:107E0000112484B714BE81FFF0D085E080938100F7
:107E100082E08093C00088E18093C10086E0809377
:107E2000C20080E18093C4008EE0C9D0259A86E02C
:107E300020E33CEF91E0309385002093840096BBD3
:107E4000B09BFECF1D9AA8958150A9F7CC24DD24C4
:107E500088248394B5E0AB2EA1E19A2EF3E0BF2EE7
:107E6000A2D0813461F49FD0082FAFD0023811F036
:107E7000013811F484E001C083E08DD089C08234E0
:107E800011F484E103C0853419F485E0A6D080C0E4
:107E9000853579F488D0E82EFF2485D0082F10E0AE
:107EA000102F00270E291F29000F111F8ED06801E7
:107EB0006FC0863521F484E090D080E0DECF843638
:107EC00009F040C070D06FD0082F6DD080E0C81688
:107ED00080E7D80618F4F601B7BEE895C0E0D1E017
:107EE00062D089930C17E1F7F0E0CF16F0E7DF06D8
:107EF00018F0F601B7BEE89568D007B600FCFDCFD4
:107F0000A601A0E0B1E02C9130E011968C91119780
:107F100090E0982F8827822B932B1296FA010C0160
:107F200087BEE89511244E5F5F4FF1E0A038BF0790
:107F300051F7F601A7BEE89507B600FCFDCF97BE46
:107F4000E89526C08437B1F42ED02DD0F82E2BD052
:107F50003CD0F601EF2C8F010F5F1F4F84911BD097
:107F6000EA94F801C1F70894C11CD11CFA94CF0C13
:107F7000D11C0EC0853739F428D08EE10CD085E9AC
:107F80000AD08FE07ACF813511F488E018D01DD067
:107F900080E101D065CF982F8091C00085FFFCCF94
:107FA0009093C60008958091C00087FFFCCF809118
:107FB000C00084FD01C0A8958091C6000895E0E648
:107FC000F0E098E1908380830895EDDF803219F02E
:107FD00088E0F5DFFFCF84E1DECF1F93182FE3DFCA
:107FE0001150E9F7F2DF1F91089580E0E8DFEE27F6
:047FF000FF270994CA
:027FFE00040479
:00000001FF
