:100000000C945D000C9485000C9485000C94850084
:100010000C9485000C9485000C9485000C9485004C
:100020000C9485000C9485000C9485000C9485003C
:100030000C9485000C9485000C9485000C9485002C
:100040000C945B040C9485000C94CB040C94A504D4
:100050000C9485000C9485000C9485000C9485000C
:100060000C94FD040C94850000000000240027007F
:100070002A0000000000250028002B0004040404CE
:100080000404040402020202020203030303030342
:10009000010204081020408001020408102001021F
:1000A00004081020000000080002010000030407FB
:1000B00000000000000000001C0611241FBECFEF4E
:1000C000D8E0DEBFCDBF11E0A0E0B1E0EEE0F6E1A8
:1000D00002C005900D92AA35B107D9F722E0AAE532
:1000E000B1E001C01D92AE3CB207E1F710E0CDE5F2
:1000F000D0E004C02197FE010E94FF0ACC35D10751
:10010000C9F70E9455060C94050B0C94000090E072
:10011000FC01EC55FF4F2491FC01E057FF4F349157
:10012000FC01E458FF4FE491EE23C9F0222339F09B
:10013000233001F1A8F4213019F1223029F1F0E047
:10014000EE0FFF1FEE58FF4FA591B4918FB7F894B3
:10015000EC91611126C030953E233C938FBF0895EA
:100160002730A9F02830C9F0243049F78091800069
:100170008F7D03C0809180008F7780938000DFCFD8
:1001800084B58F7784BDDBCF84B58F7DFBCF809125
:10019000B0008F778093B000D2CF8091B0008F7D78
:1001A000F9CF3E2BDACF3FB7F8948091210290919E
:1001B0002202A0912302B091240226B5A89B05C07B
:1001C0002F3F19F00196A11DB11D3FBFBA2FA92FD6
:1001D000982F8827BC01CD01620F711D811D911DD3
:1001E00042E0660F771F881F991F4A95D1F708953F
:1001F00008950895AF92BF92CF92DF92EF92FF924F
:100200000F931F93CF93DF936C017B018B01040F3E
:10021000151FEB015E01AE18BF08C017D10759F0DA
:100220006991D601ED91FC910190F081E02DC6011C
:100230000995892B79F7C501DF91CF911F910F9116
:10024000FF90EF90DF90CF90BF90AF900895FC01AA
:10025000538D448D252F30E0842F90E0821B930B2B
:10026000541710F0CF96089501970895FC01918DD1
:10027000828D981761F0A28DAE0FBF2FB11D5D96D4
:100280008C91928D9F5F9F73928F90E008958FEF76
:100290009FEF0895FC01918D828D981731F0828D2A
:1002A000E80FF11D858D90E008958FEF9FEF089581
:1002B000FC01918D228D892F90E0805C9F4F821BE5
:1002C00091098F739927089585E292E00E94580161
:1002D00021E0892B09F420E0822F089580E090E04E
:1002E000892B29F00E94640181110C94000008956B
:1002F000FC01A48DA80FB92FB11DA35ABF4F2C919B
:10030000848D90E001968F739927848FA689B78991
:100310002C93A089B1898C91837080648C93938D88
:10032000848D981306C00288F389E02D80818F7D2B
:1003300080830895EF92FF920F931F93CF93DF93E3
:10034000EC0181E0888F9B8D8C8D98131AC0E88911
:10035000F989808185FF15C09FB7F894EE89FF89E0
:100360006083E889F98980818370806480839FBF7E
:1003700081E090E0DF91CF911F910F91FF90EF907E
:100380000895F62E0B8D10E00F5F1F4F0F7311278E
:10039000E02E8C8D8E110CC00FB607FCFACFE889C9
:1003A000F989808185FFF5CFCE010E947801F1CFD8
:1003B000EB8DEC0FFD2FF11DE35AFF4FF0829FB73D
:1003C000F8940B8FEA89FB8980818062CFCFCF932D
:1003D000DF93EC01888D8823B9F0AA89BB89E8896D
:1003E000F9898C9185FD03C0808186FD0DC00FB613
:1003F00007FCF7CF8C9185FFF2CF808185FFEDCF91
:10040000CE010E947801E9CFDF91CF91089520912C
:100410009B01260F3327331F21323105ECF4209145
:10042000EA01FC0190E080E0243069F082E0089568
:10043000A0919B012191AC0145585E4FA40FB52FAF
:10044000B11D2C930196861798F380919B01680F3C
:1004500060939B0180E0089581E008951092EA0185
:1004600081E08093E9011092C40161E082E10E9481
:10047000870061E083E10E948700E9EBF0E0808182
:100480008E7F808380818D7F808388E48093B80015
:1004900085E48093BC000895CF93DF9391E090931F
:1004A0007A018823B9F0C091B800D091BA00809148
:1004B000BC008A7B8093BC0060E082E10E948700E0
:1004C00060E083E10E9487000E942E02D093BA0070
:1004D000C093B800DF91CF9108950895E091C301D2
:1004E0008091C201E81730F4F0E0E65AFE4F8081B7
:1004F00090E008958FEF9FEF08959091C301809150
:10050000C2012FEF3FEF981748F4E92FF0E0E65AC9
:10051000FE4F208130E09F5F9093C301C901089591
:100520008091C2019091C301891B990B0895CF92CC
:10053000DF92EF92FF920F931F93CF93DF937C0193
:10054000CB018A012091F001222389F0EB016B019C
:10055000C40ED51ECC15DD0569F06991D701ED916A
:10056000FC910190F081E02DC7010995F3CF642F34
:100570000E940702C801DF91CF911F910F91FF9058
:10058000EF90DF90CF900895CF93DF931F92CDB778
:10059000DEB769832091F0012223F9F02091130244
:1005A000203258F021E030E0FC013383228390E0D8
:1005B00080E00F90DF91CF9108958091F101E82FB5
:1005C000F0E0EE50FE4F998190838F5F8093F101B0
:1005D0008093130281E090E0ECCF61E0CE010196C0
:1005E0000E940702F7CF90E080E00895FC0101909F
:1005F0000020E9F73197AF01481B590BBC0185E298
:1006000092E00C94FA008F929F92AF92BF920F9358
:100610001F93CF93DF93CDB7DEB7A1970FB6F894B2
:10062000DEBF0FBECDBF19A2423008F44AE08E01F2
:100630000F5D1F4F842E912CB12CA12CA50194018C
:100640000E94DD0AE62FB901CA01EA30F4F4E05D48
:10065000D801EE938D01232B242B252B79F790E0E5
:1006600080E0109719F0CD010E94F602A1960FB616
:10067000F894DEBF0FBECDBFDF91CF911F910F91D8
:10068000BF90AF909F908F900895E95CE1CF4F921B
:100690005F926F927F928F929F92AF92BF92CF9212
:1006A000DF92EF92FF920F931F93CF936B017C0128
:1006B000742EAC019B010E94D80A882399F084E231
:1006C00091E0CF911F910F91FF90EF90DF90CF902D
:1006D000BF90AF909F908F907F906F905F904F9062
:1006E0000C94F60246015701E894B7F82FEF3FEF5C
:1006F0004FE75FE7C501B4010E94D80A81110DC020
:100700002FEF3FEF4FE75FE7C501B4010E940E09ED
:1007100018161CF488E291E0D4CF2FEF3FEF4FE79B
:100720005FE4C701B6010E94660A18161CF48CE249
:1007300091E0C7CF2FEF3FEF4FE75FECC701B60166
:100740000E940E0987FDF3CF20E030E0A901C70128
:10075000B6010E940E0910E000E087FF0AC06DE2BA
:1007600085E292E00E949A018C01F7FAF094F7F882
:10077000F094C0E060E070E080E09FE37C1641F020
:1007800020E030E040E251E40E941309CF5FF6CF51
:10079000A70196010E94A2082B013C010E94850935
:1007A0004B015C014AE00E9403037C01E00EF11E54
:1007B000CC23C1F1C501B4010E94B4099B01AC0175
:1007C000C301B2010E94A1084B015C016EE285E207
:1007D00092E00E949A01E80EF91EC15018F120E043
:1007E00030E040E251E4C501B4010E946B0A2B01E4
:1007F0003C010E9485094B01B12CA12C4AE0C501A6
:10080000B4010E940303E80EF91EC501B4010E9461
:10081000B4099B01AC01C301B2010E94A1084B01C4
:100820005C01DBCFC701CF911F910F91FF90EF903B
:10083000DF90CF90BF90AF909F908F907F906F9000
:100840005F904F90089585ED8093BC008091EC01FE
:100850009091ED01A091EE01B091EF010796A11DDD
:10086000B11D23E0B695A795979587952A95D1F761
:100870002091BC0024FD03C01092EA01089540912C
:10088000EC015091ED016091EE017091EF01452B6B
:10089000462B472B69F30097A105B10541F02AE2E9
:1008A0002A95F1F700C00197A109B109E1CF809124
:1008B000EB010C944C021F920F920FB60F92112471
:1008C0002F933F938F939F93AF93BF9380911D027C
:1008D00090911E02A0911F02B091200230911C0243
:1008E00023E0230F2D3758F50196A11DB11D20934C
:1008F0001C0280931D0290931E02A0931F02B093CE
:1009000020028091210290912202A0912302B091B5
:1009100024020196A11DB11D809321029093220211
:10092000A0932302B0932402BF91AF919F918F9126
:100930003F912F910F900FBE0F901F90189526E8B2
:10094000230F0296A11DB11DD2CF1F920F920FB699
:100950000F9211242F933F934F935F936F937F9345
:100960008F939F93AF93BF93EF93FF9385E292E0B2
:100970000E947801FF91EF91BF91AF919F918F916C
:100980007F916F915F914F913F912F910F900FBE8B
:100990000F901F9018951F920F920FB60F9211246F
:1009A0002F938F939F93EF93FF93E0913502F091F4
:1009B00036028081E0913B02F0913C0282FD1BC037
:1009C000908180913E028F5F8F7320913F0282174A
:1009D00041F0E0913E02F0E0EB5DFD4F958F80939A
:1009E0003E02FF91EF919F918F912F910F900FBE3B
:1009F0000F901F9018958081F4CF1F920F920FB621
:100A00000F9211242F933F934F935F936F937F9394
:100A10008F939F93AF93BF93EF93FF938091B90010
:100A2000887F803609F44AC0F0F5883209F4A7C0FF
:100A300018F5803109F49BC0B8F4882309F4F9C093
:100A4000883009F494C0FF91EF91BF91AF919F91CD
:100A50008F917F916F915F914F913F912F910F9067
:100A60000FBE0F901F901895883109F488C080320E
:100A700051F78093E80114C0803409F49DC040F41C
:100A80008033B9F38833F9F68093E80185ECB0C080
:100A9000803509F485C0883509F496C0883499F604
:100AA0000E942304D0CF883909F48CC038F58837E8
:100AB00029F050F4883611F0803729F683E08093CE
:100AC000EA011092BD0157C0883809F47BC0803913
:100AD00019F0803809F0B7CF8091BD01803208F05D
:100AE00071C0E091BD0181E08E0F8093BD018091C6
:100AF000BB00F0E0E356FE4F80833DC0803B39F001
:100B0000E0F4803A09F479C0883A09F09CCF84E097
:100B10008093EA0110929C0110929B01E091C00128
:100B2000F091C101099580919B0181110FC081E075
:100B300080939B0110927B0109C0803C09F4A6CFF1
:100B4000883C09F4A3CF883B09F07DCFE0919C015C
:100B500081E08E0F80939C01F0E0E558FE4F80818C
:100B60008093BB0090919C0180919B0129C0809152
:100B7000C5018093BB0085EC8093BC0064CF90914D
:100B8000E7018091E601981758F5E091E70181E0CF
:100B90008E0F8093E701F0E0EA53FE4F8081E9CFAA
:100BA000E091E70181E08E0F8093E7018091BB0027
:100BB000F0E0EA53FE4F80839091E7018091E601D7
:100BC0009817C8F285E8D8CFE091E70181E08E0F51
:100BD0008093E7018091BB00F0E0EA53FE4F8083F1
:100BE0008091E90181115CCF81E08093C40184EAA6
:100BF0008093BC001092EA0126CF85EC8093BC0064
:100C00001092EA018091BD01803230F4E091BD0183
:100C1000F0E0E356FE4F10826091BD0170E0E0917C
:100C2000BE01F091BF018DE991E009951092BD01DF
:100C30000ACF1092E80134CFE5E2F2E0138212828B
:100C400088EE93E0A0E0B0E084839583A683B78329
:100C500024E031E03183208325EC30E035872487A0
:100C600024EC30E03787268720EC30E0318B208B76
:100C700021EC30E0338B228B22EC30E0358B248B5F
:100C800026EC30E0378B268B118E128E138E148E4D
:100C9000E2ECF2E01382128284839583A683B78309
:100CA00086E191E0918380830895CF93DF9300D014
:100CB00000D0CDB7DEB7789484B5826084BD84B5AA
:100CC000816084BD85B5826085BD85B5816085BD47
:100CD00080916E00816080936E00109281008091FF
:100CE0008100826080938100809181008160809387
:100CF0008100809180008160809380008091B100AC
:100D000084608093B1008091B00081608093B000D6
:100D100080917A00846080937A0080917A0082606A
:100D200080937A0080917A00816080937A0080912C
:100D30007A00806880937A001092C100E8E9F0E0C0
:100D40002491E4E8F0E084918823C9F090E0880FD2
:100D5000991FFC01E859FF4F45915491FC01EE5851
:100D6000FF4FA591B4919FB7F894FA018081209527
:100D7000822380838C91E22FE823EC939FBFE09144
:100D80003502F091360282E08083E0913102F091E9
:100D900032021082E0913302F091340280E18083CC
:100DA00010923D02E0913902F0913A0286E0808390
:100DB000E0913702F0913802808180618083E09178
:100DC0003702F0913802808188608083E091370299
:100DD000F0913802808180688083E0913702F09141
:100DE000380280818F7D80831092C3011092C201EE
:100DF0001092F101109213020E942E0288EF90E0EF
:100E00009093C1018093C00189EF90E09093BF015E
:100E10008093BE0111E05E01F5E0AF0EB11C05EE5E
:100E200095EC392E20E0822E20E0922E22242A9466
:100E300020E420937C0080917A00806480937A0083
:100E400080917A0086FDFCCF6091780070917900E6
:100E5000072E000C880B990B0E94B6092AE038E295
:100E600040EA5BE30E946B0A6093180270931902D8
:100E700080931A0290931B022FE83AEA46EA54EC58
:100E80000E946B0A24EA3AEA46EA55E40E94A20864
:100E90006B017C0120E030E0A9010E940E0987FD72
:100EA00054C0C0921402D0921502E0921602F09241
:100EB000170280E391E00E94F6026091180270919F
:100EC000190280911A0290911B0242E00E9447038E
:100ED00081E491E00E94F60286E491E00E94F6022D
:100EE0006091140270911502809116029091170280
:100EF00042E00E94470382E591E00E94F60287E506
:100F000091E00E94F6028091140290911502A09146
:100F10001602B091170289839A83AB83BC83109326
:100F2000F001109312021092F10110921302CE01FF
:100F300001967C01AE14BF0489F0F70161917F0135
:100F400082EC92E00E94C402F5CF1092140210923B
:100F500015021092160210921702ABCF7090130276
:100F6000F0E2F71508F48EC00E94D3006B017C01FB
:100F70008091EA01811161C082E08093EA011093BF
:100F8000E9012092E8011092E7017092E601A2EFD8
:100F9000B1E0E6ECF1E080E07812AAC01092C50161
:100FA0008091C50182608093C5018091C401813028
:100FB00009F0A2C01092C4010E94D3006B017C0111
:100FC0008091C5018093BB008091EC019091ED016F
:100FD000A091EE01B091EF01892B8A2B8B2B99F018
:100FE0000E94D3004090EC015090ED016090EE0122
:100FF0007090EF016C197D098E099F0946165706FE
:1010000068067906D8F18091BC0083FDD9CF309273
:10101000BC000E94D3006B017C018091EA01823008
:1010200009F46DC08091E8018F3F61F18091E80182
:10103000803241F18091E80125C08091EC019091CE
:10104000ED01A091EE01B091EF01892B8A2B8B2B42
:1010500009F48ECF0E94D3002091EC013091ED0174
:101060004091EE015091EF016C197D098E099F09A5
:10107000261737074807590708F07ACF8091EB0108
:101080000E944C021092F101109213021092F00192
:101090000E94D3002B013C0184E6C82ED12CE12C08
:1010A000F12C0E94D3006419750986099709683EDE
:1010B000734081059105A8F321E0C21AD108E10827
:1010C000F10888EE480E83E0581E611C711CC114A3
:1010D000D104E104F10429F78114910409F4A8CEA4
:1010E0000E946401882309F4A3CE0E940000A0CED0
:1010F0009D9191938F5F50CF0093BC008ACF8091D8
:10110000EC019091ED01A091EE01B091EF01892BDE
:101110008A2B8B2B09F481CF0E94D3004090EC01E5
:101120005090ED016090EE017090EF016C197D0917
:101130008E099F09461657066806790608F06DCF96
:101140009DCF5058BB27AA270E94B9080C942C0A9F
:101150000E941E0A38F00E94250A20F039F49F3FB1
:1011600019F426F40C941B0A0EF4E095E7FB0C949A
:10117000150AE92F0E943D0A58F3BA176207730750
:101180008407950720F079F4A6F50C945F0A0EF415
:10119000E0950B2EBA2FA02D0B01B90190010C0187
:1011A000CA01A0011124FF27591B99F0593F50F49F
:1011B000503E68F11A16F040A22F232F342F4427F7
:1011C000585FF3CF469537952795A795F0405395EF
:1011D000C9F77EF41F16BA0B620B730B840BBAF0BF
:1011E0009150A1F0FF0FBB1F661F771F881FC2F72A
:1011F0000EC0BA0F621F731F841F48F4879577953E
:101200006795B795F7959E3F08F0B0CF9395880FF7
:1012100008F09927EE0F9795879508950E94F10998
:1012200008F481E008950E9427090C942C0A0E947A
:10123000250A58F00E941E0A40F029F45F3F29F069
:101240000C94150A51110C94600A0C941B0A0E940C
:101250003D0A68F39923B1F3552391F3951B550B80
:10126000BB27AA2762177307840738F09F5F5F4F79
:10127000220F331F441FAA1FA9F335D00E2E3AF0B8
:10128000E0E832D091505040E695001CCAF72BD0D0
:10129000FE2F29D0660F771F881FBB1F2617370721
:1012A0004807AB07B0E809F0BB0B802DBF01FF2753
:1012B00093585F4F3AF09E3F510578F00C94150A11
:1012C0000C94600A5F3FE4F3983ED4F386957795DB
:1012D0006795B795F7959F5FC9F7880F911D96950C
:1012E000879597F90895E1E0660F771F881FBB1F68
:1012F000621773078407BA0720F0621B730B840B15
:10130000BA0BEE1F88F7E09508950E94450A88F011
:101310009F5798F0B92F9927B751B0F0E1F0660FB9
:10132000771F881F991F1AF0BA95C9F714C0B130FA
:1013300091F00E945F0AB1E008950C945F0A672F54
:10134000782F8827B85F39F0B93FCCF38695779529
:101350006795B395D9F73EF4909580957095619512
:101360007F4F8F4F9F4F0895E89409C097FB3EF43D
:1013700090958095709561957F4F8F4F9F4F9923E2
:10138000A9F0F92F96E9BB279395F6958795779560
:101390006795B795F111F8CFFAF4BB0F11F460FF20
:1013A0001BC06F5F7F4F8F4F9F4F16C0882311F078
:1013B00096E911C0772321F09EE8872F762F05C08C
:1013C000662371F096E8862F70E060E02AF09A9527
:1013D000660F771F881FDAF7880F9695879597F91C
:1013E0000895990F0008550FAA0BE0E8FEEF1616B6
:1013F0001706E807F907C0F012161306E407F50709
:1014000098F0621B730B840B950B39F40A2661F07C
:10141000232B242B252B21F408950A2609F4A1401F
:10142000A6958FEF811D811D089597F99F6780E82C
:1014300070E060E008959FEF80EC089500240A9426
:101440001616170618060906089500240A9412169F
:101450001306140605060895092E0394000C11F4D2
:10146000882352F0BB0F40F4BF2B11F460FF04C07F
:101470006F5F7F4F8F4F9F4F089557FD9058440FD8
:10148000551F59F05F3F71F04795880F97FB991FE3
:1014900061F09F3F79F087950895121613061406A0
:1014A000551FF2CF4695F1DF08C01616170618062D
:1014B000991FF1CF86957105610508940895E89408
:1014C000BB2766277727CB0197F908950E94F1097A
:1014D00008F48FEF08950E947E0A0C942C0A0E9453
:1014E0001E0A38F00E94250A20F0952311F00C9472
:1014F000150A0C941B0A11240C94600A0E943D0AE0
:1015000070F3959FC1F3950F50E0551F629FF00156
:10151000729FBB27F00DB11D639FAA27F00DB11D6F
:10152000AA1F649F6627B00DA11D661F829F2227F8
:10153000B00DA11D621F739FB00DA11D621F839F7F
:10154000A00D611D221F749F3327A00D611D231F55
:10155000849F600D211D822F762F6A2F11249F57A3
:1015600050409AF0F1F088234AF0EE0FFF1FBB1FA6
:10157000661F771F881F91505040A9F79E3F510565
:1015800080F00C94150A0C94600A5F3FE4F3983ED7
:10159000D4F3869577956795B795F795E7959F5F0F
:1015A000C1F7FE2B880F911D9695879597F90895A1
:1015B0000E94F109880B990B0895A1E21A2EAA1B2B
:1015C000BB1BFD010DC0AA1FBB1FEE1FFF1FA217F3
:1015D000B307E407F50720F0A21BB30BE40BF50BF0
:1015E000661F771F881F991F1A9469F76095709579
:1015F000809590959B01AC01BD01CF010895EE0F40
:0E160000FF1F0590F491E02D0994F894FFCFA0
:10160E00000000009A01FA002701E7015801360197
:10161E004A0100000000C4029702F3026D0290021C
:10162E007D026E026E616E00696E66006F766600F8
:10163E00416E616C6F6720566F6C746167653A20FE
:10164E000020562C20005475726269646974793AD0
:0A165E002000204E5455000D0A0034
:00000001FF
